{
  "_format": "hh-sol-artifact-1",
  "contractName": "OpportunityAlert",
  "sourceName": "contracts/OpportunityAlert.sol",
  "abi": [
    {
      "inputs": [
        {
          "internalType": "address",
          "name": "relationshipRegistryAddress",
          "type": "address"
        },
        {
          "internalType": "address",
          "name": "portfolioRegistryAddress",
          "type": "address"
        }
      ],
      "stateMutability": "nonpayable",
      "type": "constructor"
    },
    {
      "anonymous": false,
      "inputs": [
        {
          "indexed": true,
          "internalType": "address",
          "name": "investor",
          "type": "address"
        },
        {
          "indexed": true,
          "internalType": "bytes32",
          "name": "relationshipId",
          "type": "bytes32"
        },
        {
          "indexed": false,
          "internalType": "string",
          "name": "entityA",
          "type": "string"
        },
        {
          "indexed": false,
          "internalType": "string",
          "name": "entityB",
          "type": "string"
        },
        {
          "indexed": false,
          "internalType": "string",
          "name": "relationshipType",
          "type": "string"
        },
        {
          "indexed": false,
          "internalType": "string",
          "name": "opportunityType",
          "type": "string"
        },
        {
          "indexed": false,
          "internalType": "uint256",
          "name": "alertId",
          "type": "uint256"
        }
      ],
      "name": "CollaborationOpportunityFound",
      "type": "event"
    },
    {
      "inputs": [
        {
          "internalType": "address",
          "name": "investor",
          "type": "address"
        },
        {
          "internalType": "string",
          "name": "entityA",
          "type": "string"
        },
        {
          "internalType": "string",
          "name": "entityB",
          "type": "string"
        },
        {
          "internalType": "string",
          "name": "relationshipType",
          "type": "string"
        }
      ],
      "name": "checkForOpportunity",
      "outputs": [
        {
          "internalType": "bool",
          "name": "",
          "type": "bool"
        }
      ],
      "stateMutability": "nonpayable",
      "type": "function"
    },
    {
      "inputs": [
        {
          "internalType": "bytes32",
          "name": "",
          "type": "bytes32"
        },
        {
          "internalType": "address",
          "name": "",
          "type": "address"
        }
      ],
      "name": "emittedForInvestor",
      "outputs": [
        {
          "internalType": "bool",
          "name": "",
          "type": "bool"
        }
      ],
      "stateMutability": "view",
      "type": "function"
    },
    {
      "inputs": [
        {
          "internalType": "uint256",
          "name": "alertId",
          "type": "uint256"
        }
      ],
      "name": "getAlert",
      "outputs": [
        {
          "components": [
            {
              "internalType": "address",
              "name": "investor",
              "type": "address"
            },
            {
              "internalType": "bytes32",
              "name": "relationshipId",
              "type": "bytes32"
            },
            {
              "internalType": "string",
              "name": "entityA",
              "type": "string"
            },
            {
              "internalType": "string",
              "name": "entityB",
              "type": "string"
            },
            {
              "internalType": "string",
              "name": "relationshipType",
              "type": "string"
            },
            {
              "internalType": "string",
              "name": "opportunityType",
              "type": "string"
            },
            {
              "internalType": "uint256",
              "name": "timestamp",
              "type": "uint256"
            }
          ],
          "internalType": "struct OpportunityAlert.Alert",
          "name": "",
          "type": "tuple"
        }
      ],
      "stateMutability": "view",
      "type": "function"
    },
    {
      "inputs": [],
      "name": "getAlertCount",
      "outputs": [
        {
          "internalType": "uint256",
          "name": "",
          "type": "uint256"
        }
      ],
      "stateMutability": "view",
      "type": "function"
    },
    {
      "inputs": [
        {
          "internalType": "address",
          "name": "investor",
          "type": "address"
        }
      ],
      "name": "getInvestorAlerts",
      "outputs": [
        {
          "internalType": "uint256[]",
          "name": "",
          "type": "uint256[]"
        }
      ],
      "stateMutability": "view",
      "type": "function"
    },
    {
      "inputs": [
        {
          "internalType": "address",
          "name": "",
          "type": "address"
        },
        {
          "internalType": "uint256",
          "name": "",
          "type": "uint256"
        }
      ],
      "name": "investorAlerts",
      "outputs": [
        {
          "internalType": "uint256",
          "name": "",
          "type": "uint256"
        }
      ],
      "stateMutability": "view",
      "type": "function"
    },
    {
      "inputs": [],
      "name": "portfolioRegistry",
      "outputs": [
        {
          "internalType": "contract PortfolioRegistry",
          "name": "",
          "type": "address"
        }
      ],
      "stateMutability": "view",
      "type": "function"
    },
    {
      "inputs": [],
      "name": "relationshipRegistry",
      "outputs": [
        {
          "internalType": "contract RelationshipRegistry",
          "name": "",
          "type": "address"
        }
      ],
      "stateMutability": "view",
      "type": "function"
    }
  ],
  "bytecode": "0x60806040523480156200001157600080fd5b5060405162001e2738038062001e2783398181016040528101906200003791906200020e565b600073ffffffffffffffffffffffffffffffffffffffff168273ffffffffffffffffffffffffffffffffffffffff1603620000a9576040517f08c379a0000000000000000000000000000000000000000000000000000000008152600401620000a090620002b6565b60405180910390fd5b600073ffffffffffffffffffffffffffffffffffffffff168173ffffffffffffffffffffffffffffffffffffffff16036200011b576040517f08c379a0000000000000000000000000000000000000000000000000000000008152600401620001129062000328565b60405180910390fd5b816000806101000a81548173ffffffffffffffffffffffffffffffffffffffff021916908373ffffffffffffffffffffffffffffffffffffffff16021790555080600160006101000a81548173ffffffffffffffffffffffffffffffffffffffff021916908373ffffffffffffffffffffffffffffffffffffffff16021790555050506200034a565b600080fd5b600073ffffffffffffffffffffffffffffffffffffffff82169050919050565b6000620001d682620001a9565b9050919050565b620001e881620001c9565b8114620001f457600080fd5b50565b6000815190506200020881620001dd565b92915050565b60008060408385031215620002285762000227620001a4565b5b60006200023885828601620001f7565b92505060206200024b85828601620001f7565b9150509250929050565b600082825260208201905092915050565b7f52656c6174696f6e736869702072656769737472792072657175697265640000600082015250565b60006200029e601e8362000255565b9150620002ab8262000266565b602082019050919050565b60006020820190508181036000830152620002d1816200028f565b9050919050565b7f506f7274666f6c696f2072656769737472792072657175697265640000000000600082015250565b600062000310601b8362000255565b91506200031d82620002d8565b602082019050919050565b60006020820190508181036000830152620003438162000301565b9050919050565b611acd806200035a6000396000f3fe608060405234801561001057600080fd5b50600436106100885760003560e01c8063850818861161005b5780638508188614610117578063d0f15b6214610147578063dd5c1dbf14610177578063f52fa0ed146101a757610088565b8063109868181461008d5780632f7ac1ba146100ab57806340411fc8146100c9578063558f355c146100e7575b600080fd5b6100956101d7565b6040516100a29190610d87565b60405180910390f35b6100b36101fb565b6040516100c09190610dc3565b60405180910390f35b6100d1610221565b6040516100de9190610df7565b60405180910390f35b61010160048036038101906100fc9190610e64565b61022e565b60405161010e9190610f4f565b60405180910390f35b610131600480360381019061012c9190610f9d565b6102c5565b60405161013e9190611133565b60405180910390f35b610161600480360381019061015c919061128a565b6105fa565b60405161016e9190611360565b60405180910390f35b610191600480360381019061018c919061137b565b610c52565b60405161019e9190610df7565b60405180910390f35b6101c160048036038101906101bc91906113e7565b610c83565b6040516101ce9190611360565b60405180910390f35b60008054906101000a900473ffffffffffffffffffffffffffffffffffffffff1681565b600160009054906101000a900473ffffffffffffffffffffffffffffffffffffffff1681565b6000600280549050905090565b6060600360008373ffffffffffffffffffffffffffffffffffffffff1673ffffffffffffffffffffffffffffffffffffffff1681526020019081526020016000208054806020026020016040519081016040528092919081815260200182805480156102b957602002820191906000526020600020905b8154815260200190600101908083116102a5575b50505050509050919050565b6102cd610cb2565b6002805490508210610314576040517f08c379a000000000000000000000000000000000000000000000000000000000815260040161030b90611484565b60405180910390fd5b60028281548110610328576103276114a4565b5b90600052602060002090600702016040518060e00160405290816000820160009054906101000a900473ffffffffffffffffffffffffffffffffffffffff1673ffffffffffffffffffffffffffffffffffffffff1673ffffffffffffffffffffffffffffffffffffffff168152602001600182015481526020016002820180546103b190611502565b80601f01602080910402602001604051908101604052809291908181526020018280546103dd90611502565b801561042a5780601f106103ff5761010080835404028352916020019161042a565b820191906000526020600020905b81548152906001019060200180831161040d57829003601f168201915b5050505050815260200160038201805461044390611502565b80601f016020809104026020016040519081016040528092919081815260200182805461046f90611502565b80156104bc5780601f10610491576101008083540402835291602001916104bc565b820191906000526020600020905b81548152906001019060200180831161049f57829003601f168201915b505050505081526020016004820180546104d590611502565b80601f016020809104026020016040519081016040528092919081815260200182805461050190611502565b801561054e5780601f106105235761010080835404028352916020019161054e565b820191906000526020600020905b81548152906001019060200180831161053157829003601f168201915b5050505050815260200160058201805461056790611502565b80601f016020809104026020016040519081016040528092919081815260200182805461059390611502565b80156105e05780601f106105b5576101008083540402835291602001916105e0565b820191906000526020600020905b8154815290600101906020018083116105c357829003601f168201915b505050505081526020016006820154815250509050919050565b60008073ffffffffffffffffffffffffffffffffffffffff168573ffffffffffffffffffffffffffffffffffffffff160361066a576040517f08c379a00000000000000000000000000000000000000000000000000000000081526004016106619061157f565b60405180910390fd5b60008054906101000a900473ffffffffffffffffffffffffffffffffffffffff1673ffffffffffffffffffffffffffffffffffffffff166345a948138585856040518463ffffffff1660e01b81526004016106c7939291906115d8565b602060405180830381865afa1580156106e4573d6000803e3d6000fd5b505050506040513d601f19601f820116820180604052508101906107089190611650565b610747576040517f08c379a000000000000000000000000000000000000000000000000000000000815260040161073e906116c9565b60405180910390fd5b60008060009054906101000a900473ffffffffffffffffffffffffffffffffffffffff1673ffffffffffffffffffffffffffffffffffffffff166327e157548686866040518463ffffffff1660e01b81526004016107a7939291906115d8565b602060405180830381865afa1580156107c4573d6000803e3d6000fd5b505050506040513d601f19601f820116820180604052508101906107e891906116fe565b90506004600082815260200190815260200160002060008773ffffffffffffffffffffffffffffffffffffffff1673ffffffffffffffffffffffffffffffffffffffff16815260200190815260200160002060009054906101000a900460ff1615610857576000915050610c4a565b6000600160009054906101000a900473ffffffffffffffffffffffffffffffffffffffff1673ffffffffffffffffffffffffffffffffffffffff166368b67d0788886040518363ffffffff1660e01b81526004016108b692919061173a565b602060405180830381865afa1580156108d3573d6000803e3d6000fd5b505050506040513d601f19601f820116820180604052508101906108f79190611650565b90506000600160009054906101000a900473ffffffffffffffffffffffffffffffffffffffff1673ffffffffffffffffffffffffffffffffffffffff166368b67d0789886040518363ffffffff1660e01b815260040161095892919061173a565b602060405180830381865afa158015610975573d6000803e3d6000fd5b505050506040513d601f19601f820116820180604052508101906109999190611650565b90508180156109a55750805b6109b55760009350505050610c4a565b6000600280549050905060026040518060e001604052808b73ffffffffffffffffffffffffffffffffffffffff1681526020018681526020018a81526020018981526020018881526020016040518060400160405280601381526020017f504f5254464f4c494f5f43524f53534f56455200000000000000000000000000815250815260200142815250908060018154018082558091505060019003906000526020600020906007020160009091909190915060008201518160000160006101000a81548173ffffffffffffffffffffffffffffffffffffffff021916908373ffffffffffffffffffffffffffffffffffffffff160217905550602082015181600101556040820151816002019081610ace919061190c565b506060820151816003019081610ae4919061190c565b506080820151816004019081610afa919061190c565b5060a0820151816005019081610b10919061190c565b5060c08201518160060155505060016004600086815260200190815260200160002060008b73ffffffffffffffffffffffffffffffffffffffff1673ffffffffffffffffffffffffffffffffffffffff16815260200190815260200160002060006101000a81548160ff021916908315150217905550600360008a73ffffffffffffffffffffffffffffffffffffffff1673ffffffffffffffffffffffffffffffffffffffff168152602001908152602001600020819080600181540180825580915050600190039060005260206000200160009091909190915055838973ffffffffffffffffffffffffffffffffffffffff167f3b93db4e8afbab37e112507165eb60026e51225b0e6a024c8452840e7ed3f6c58a8a8a86604051610c399493929190611a2a565b60405180910390a360019450505050505b949350505050565b60036020528160005260406000208181548110610c6e57600080fd5b90600052602060002001600091509150505481565b60046020528160005260406000206020528060005260406000206000915091509054906101000a900460ff1681565b6040518060e00160405280600073ffffffffffffffffffffffffffffffffffffffff1681526020016000801916815260200160608152602001606081526020016060815260200160608152602001600081525090565b600073ffffffffffffffffffffffffffffffffffffffff82169050919050565b6000819050919050565b6000610d4d610d48610d4384610d08565b610d28565b610d08565b9050919050565b6000610d5f82610d32565b9050919050565b6000610d7182610d54565b9050919050565b610d8181610d66565b82525050565b6000602082019050610d9c6000830184610d78565b92915050565b6000610dad82610d54565b9050919050565b610dbd81610da2565b82525050565b6000602082019050610dd86000830184610db4565b92915050565b6000819050919050565b610df181610dde565b82525050565b6000602082019050610e0c6000830184610de8565b92915050565b6000604051905090565b600080fd5b600080fd5b6000610e3182610d08565b9050919050565b610e4181610e26565b8114610e4c57600080fd5b50565b600081359050610e5e81610e38565b92915050565b600060208284031215610e7a57610e79610e1c565b5b6000610e8884828501610e4f565b91505092915050565b600081519050919050565b600082825260208201905092915050565b6000819050602082019050919050565b610ec681610dde565b82525050565b6000610ed88383610ebd565b60208301905092915050565b6000602082019050919050565b6000610efc82610e91565b610f068185610e9c565b9350610f1183610ead565b8060005b83811015610f42578151610f298882610ecc565b9750610f3483610ee4565b925050600181019050610f15565b5085935050505092915050565b60006020820190508181036000830152610f698184610ef1565b905092915050565b610f7a81610dde565b8114610f8557600080fd5b50565b600081359050610f9781610f71565b92915050565b600060208284031215610fb357610fb2610e1c565b5b6000610fc184828501610f88565b91505092915050565b610fd381610e26565b82525050565b6000819050919050565b610fec81610fd9565b82525050565b600081519050919050565b600082825260208201905092915050565b60005b8381101561102c578082015181840152602081019050611011565b60008484015250505050565b6000601f19601f8301169050919050565b600061105482610ff2565b61105e8185610ffd565b935061106e81856020860161100e565b61107781611038565b840191505092915050565b600060e08301600083015161109a6000860182610fca565b5060208301516110ad6020860182610fe3565b50604083015184820360408601526110c58282611049565b915050606083015184820360608601526110df8282611049565b915050608083015184820360808601526110f98282611049565b91505060a083015184820360a08601526111138282611049565b91505060c083015161112860c0860182610ebd565b508091505092915050565b6000602082019050818103600083015261114d8184611082565b905092915050565b600080fd5b600080fd5b7f4e487b7100000000000000000000000000000000000000000000000000000000600052604160045260246000fd5b61119782611038565b810181811067ffffffffffffffff821117156111b6576111b561115f565b5b80604052505050565b60006111c9610e12565b90506111d5828261118e565b919050565b600067ffffffffffffffff8211156111f5576111f461115f565b5b6111fe82611038565b9050602081019050919050565b82818337600083830152505050565b600061122d611228846111da565b6111bf565b9050828152602081018484840111156112495761124861115a565b5b61125484828561120b565b509392505050565b600082601f83011261127157611270611155565b5b813561128184826020860161121a565b91505092915050565b600080600080608085870312156112a4576112a3610e1c565b5b60006112b287828801610e4f565b945050602085013567ffffffffffffffff8111156112d3576112d2610e21565b5b6112df8782880161125c565b935050604085013567ffffffffffffffff811115611300576112ff610e21565b5b61130c8782880161125c565b925050606085013567ffffffffffffffff81111561132d5761132c610e21565b5b6113398782880161125c565b91505092959194509250565b60008115159050919050565b61135a81611345565b82525050565b60006020820190506113756000830184611351565b92915050565b6000806040838503121561139257611391610e1c565b5b60006113a085828601610e4f565b92505060206113b185828601610f88565b9150509250929050565b6113c481610fd9565b81146113cf57600080fd5b50565b6000813590506113e1816113bb565b92915050565b600080604083850312156113fe576113fd610e1c565b5b600061140c858286016113d2565b925050602061141d85828601610e4f565b9150509250929050565b600082825260208201905092915050565b7f416c657274206d697373696e6700000000000000000000000000000000000000600082015250565b600061146e600d83611427565b915061147982611438565b602082019050919050565b6000602082019050818103600083015261149d81611461565b9050919050565b7f4e487b7100000000000000000000000000000000000000000000000000000000600052603260045260246000fd5b7f4e487b7100000000000000000000000000000000000000000000000000000000600052602260045260246000fd5b6000600282049050600182168061151a57607f821691505b60208210810361152d5761152c6114d3565b5b50919050565b7f496e766573746f72207265717569726564000000000000000000000000000000600082015250565b6000611569601183611427565b915061157482611533565b602082019050919050565b600060208201905081810360008301526115988161155c565b9050919050565b60006115aa82610ff2565b6115b48185611427565b93506115c481856020860161100e565b6115cd81611038565b840191505092915050565b600060608201905081810360008301526115f2818661159f565b90508181036020830152611606818561159f565b9050818103604083015261161a818461159f565b9050949350505050565b61162d81611345565b811461163857600080fd5b50565b60008151905061164a81611624565b92915050565b60006020828403121561166657611665610e1c565b5b60006116748482850161163b565b91505092915050565b7f52656c6174696f6e73686970206d697373696e67000000000000000000000000600082015250565b60006116b3601483611427565b91506116be8261167d565b602082019050919050565b600060208201905081810360008301526116e2816116a6565b9050919050565b6000815190506116f8816113bb565b92915050565b60006020828403121561171457611713610e1c565b5b6000611722848285016116e9565b91505092915050565b61173481610e26565b82525050565b600060408201905061174f600083018561172b565b8181036020830152611761818461159f565b90509392505050565b60008190508160005260206000209050919050565b60006020601f8301049050919050565b600082821b905092915050565b6000600883026117cc7fffffffffffffffffffffffffffffffffffffffffffffffffffffffffffffffff8261178f565b6117d6868361178f565b95508019841693508086168417925050509392505050565b60006118096118046117ff84610dde565b610d28565b610dde565b9050919050565b6000819050919050565b611823836117ee565b61183761182f82611810565b84845461179c565b825550505050565b600090565b61184c61183f565b61185781848461181a565b505050565b5b8181101561187b57611870600082611844565b60018101905061185d565b5050565b601f8211156118c0576118918161176a565b61189a8461177f565b810160208510156118a9578190505b6118bd6118b58561177f565b83018261185c565b50505b505050565b600082821c905092915050565b60006118e3600019846008026118c5565b1980831691505092915050565b60006118fc83836118d2565b9150826002028217905092915050565b61191582610ff2565b67ffffffffffffffff81111561192e5761192d61115f565b5b6119388254611502565b61194382828561187f565b600060209050601f8311600181146119765760008415611964578287015190505b61196e85826118f0565b8655506119d6565b601f1984166119848661176a565b60005b828110156119ac57848901518255600182019150602085019450602081019050611987565b868310156119c957848901516119c5601f8916826118d2565b8355505b6001600288020188555050505b505050505050565b7f504f5254464f4c494f5f43524f53534f56455200000000000000000000000000600082015250565b6000611a14601383611427565b9150611a1f826119de565b602082019050919050565b600060a0820190508181036000830152611a44818761159f565b90508181036020830152611a58818661159f565b90508181036040830152611a6c818561159f565b90508181036060830152611a7f81611a07565b9050611a8e6080830184610de8565b9594505050505056fea264697066735822122060b4557fc21b10497211d5fc24868167960d35d54ab4d6c0d23bbff41804e09c64736f6c63430008180033",
  "linkReferences": {},
  "deployedLinkReferences": {}
}