{
  "_format": "hh-sol-artifact-1",
  "contractName": "RelationshipRegistry",
  "sourceName": "contracts/RelationshipRegistry.sol",
  "abi": [
    {
      "inputs": [
        {
          "internalType": "address",
          "name": "initialOwner",
          "type": "address"
        },
        {
          "internalType": "address",
          "name": "initialOracle",
          "type": "address"
        }
      ],
      "stateMutability": "nonpayable",
      "type": "constructor"
    },
    {
      "inputs": [
        {
          "internalType": "address",
          "name": "owner",
          "type": "address"
        }
      ],
      "name": "OwnableInvalidOwner",
      "type": "error"
    },
    {
      "inputs": [
        {
          "internalType": "address",
          "name": "account",
          "type": "address"
        }
      ],
      "name": "OwnableUnauthorizedAccount",
      "type": "error"
    },
    {
      "anonymous": false,
      "inputs": [
        {
          "indexed": true,
          "internalType": "address",
          "name": "previousOracle",
          "type": "address"
        },
        {
          "indexed": true,
          "internalType": "address",
          "name": "nextOracle",
          "type": "address"
        }
      ],
      "name": "AttestationOracleUpdated",
      "type": "event"
    },
    {
      "anonymous": false,
      "inputs": [
        {
          "indexed": true,
          "internalType": "address",
          "name": "previousOwner",
          "type": "address"
        },
        {
          "indexed": true,
          "internalType": "address",
          "name": "newOwner",
          "type": "address"
        }
      ],
      "name": "OwnershipTransferred",
      "type": "event"
    },
    {
      "anonymous": false,
      "inputs": [
        {
          "indexed": true,
          "internalType": "bytes32",
          "name": "relationshipId",
          "type": "bytes32"
        },
        {
          "indexed": false,
          "internalType": "string",
          "name": "entityA",
          "type": "string"
        },
        {
          "indexed": false,
          "internalType": "string",
          "name": "entityB",
          "type": "string"
        },
        {
          "indexed": false,
          "internalType": "string",
          "name": "relationshipType",
          "type": "string"
        },
        {
          "indexed": false,
          "internalType": "uint256",
          "name": "timestamp",
          "type": "uint256"
        }
      ],
      "name": "RelationshipRecorded",
      "type": "event"
    },
    {
      "inputs": [],
      "name": "attestationOracle",
      "outputs": [
        {
          "internalType": "address",
          "name": "",
          "type": "address"
        }
      ],
      "stateMutability": "view",
      "type": "function"
    },
    {
      "inputs": [],
      "name": "owner",
      "outputs": [
        {
          "internalType": "address",
          "name": "",
          "type": "address"
        }
      ],
      "stateMutability": "view",
      "type": "function"
    },
    {
      "inputs": [
        {
          "internalType": "string",
          "name": "entityA",
          "type": "string"
        },
        {
          "internalType": "string",
          "name": "entityB",
          "type": "string"
        },
        {
          "internalType": "string",
          "name": "relationshipType",
          "type": "string"
        }
      ],
      "name": "recordRelationship",
      "outputs": [
        {
          "internalType": "bytes32",
          "name": "relationshipId",
          "type": "bytes32"
        }
      ],
      "stateMutability": "nonpayable",
      "type": "function"
    },
    {
      "inputs": [
        {
          "internalType": "string",
          "name": "entityA",
          "type": "string"
        },
        {
          "internalType": "string",
          "name": "entityB",
          "type": "string"
        },
        {
          "internalType": "string",
          "name": "relationshipType",
          "type": "string"
        }
      ],
      "name": "relationshipExists",
      "outputs": [
        {
          "internalType": "bool",
          "name": "",
          "type": "bool"
        }
      ],
      "stateMutability": "view",
      "type": "function"
    },
    {
      "inputs": [
        {
          "internalType": "string",
          "name": "entityA",
          "type": "string"
        },
        {
          "internalType": "string",
          "name": "entityB",
          "type": "string"
        },
        {
          "internalType": "string",
          "name": "relationshipType",
          "type": "string"
        }
      ],
      "name": "relationshipIdFor",
      "outputs": [
        {
          "internalType": "bytes32",
          "name": "",
          "type": "bytes32"
        }
      ],
      "stateMutability": "pure",
      "type": "function"
    },
    {
      "inputs": [
        {
          "internalType": "bytes32",
          "name": "",
          "type": "bytes32"
        }
      ],
      "name": "relationships",
      "outputs": [
        {
          "internalType": "string",
          "name": "entityA",
          "type": "string"
        },
        {
          "internalType": "string",
          "name": "entityB",
          "type": "string"
        },
        {
          "internalType": "string",
          "name": "relationshipType",
          "type": "string"
        },
        {
          "internalType": "uint256",
          "name": "timestamp",
          "type": "uint256"
        },
        {
          "internalType": "bool",
          "name": "verified",
          "type": "bool"
        }
      ],
      "stateMutability": "view",
      "type": "function"
    },
    {
      "inputs": [],
      "name": "renounceOwnership",
      "outputs": [],
      "stateMutability": "nonpayable",
      "type": "function"
    },
    {
      "inputs": [
        {
          "internalType": "address",
          "name": "newOracle",
          "type": "address"
        }
      ],
      "name": "setAttestationOracle",
      "outputs": [],
      "stateMutability": "nonpayable",
      "type": "function"
    },
    {
      "inputs": [
        {
          "internalType": "address",
          "name": "newOwner",
          "type": "address"
        }
      ],
      "name": "transferOwnership",
      "outputs": [],
      "stateMutability": "nonpayable",
      "type": "function"
    }
  ],
  "bytecode": "0x60806040523480156200001157600080fd5b506040516200164838038062001648833981810160405281019062000037919062000303565b81600073ffffffffffffffffffffffffffffffffffffffff168173ffffffffffffffffffffffffffffffffffffffff1603620000ad5760006040517f1e4fbdf7000000000000000000000000000000000000000000000000000000008152600401620000a491906200035b565b60405180910390fd5b620000be81620001d560201b60201c565b50600073ffffffffffffffffffffffffffffffffffffffff168173ffffffffffffffffffffffffffffffffffffffff160362000131576040517f08c379a00000000000000000000000000000000000000000000000000000000081526004016200012890620003d9565b60405180910390fd5b80600260006101000a81548173ffffffffffffffffffffffffffffffffffffffff021916908373ffffffffffffffffffffffffffffffffffffffff1602179055508073ffffffffffffffffffffffffffffffffffffffff16600073ffffffffffffffffffffffffffffffffffffffff167fe95bf9d3444498494dacd564ce4e91088aeb2b2908deff1297c8bc931cfff16a60405160405180910390a35050620003fb565b60008060009054906101000a900473ffffffffffffffffffffffffffffffffffffffff169050816000806101000a81548173ffffffffffffffffffffffffffffffffffffffff021916908373ffffffffffffffffffffffffffffffffffffffff1602179055508173ffffffffffffffffffffffffffffffffffffffff168173ffffffffffffffffffffffffffffffffffffffff167f8be0079c531659141344cd1fd0a4f28419497f9722a3daafe3b4186f6b6457e060405160405180910390a35050565b600080fd5b600073ffffffffffffffffffffffffffffffffffffffff82169050919050565b6000620002cb826200029e565b9050919050565b620002dd81620002be565b8114620002e957600080fd5b50565b600081519050620002fd81620002d2565b92915050565b600080604083850312156200031d576200031c62000299565b5b60006200032d85828601620002ec565b92505060206200034085828601620002ec565b9150509250929050565b6200035581620002be565b82525050565b60006020820190506200037260008301846200034a565b92915050565b600082825260208201905092915050565b7f4f7261636c652072657175697265640000000000000000000000000000000000600082015250565b6000620003c1600f8362000378565b9150620003ce8262000389565b602082019050919050565b60006020820190508181036000830152620003f481620003b2565b9050919050565b61123d806200040b6000396000f3fe608060405234801561001057600080fd5b50600436106100935760003560e01c806345a948131161006657806345a9481314610136578063715018a6146101665780638da5cb5b14610170578063cf914ab01461018e578063f2fde38b146101be57610093565b80631bf28a6c1461009857806327e15754146100b6578063375e6855146100e65780633e56c5791461011a575b600080fd5b6100a06101da565b6040516100ad9190610973565b60405180910390f35b6100d060048036038101906100cb9190610ae8565b610200565b6040516100dd9190610ba8565b60405180910390f35b61010060048036038101906100fb9190610bef565b610236565b604051610111959493929190610ccf565b60405180910390f35b610134600480360381019061012f9190610d63565b610411565b005b610150600480360381019061014b9190610ae8565b61054e565b60405161015d9190610d90565b60405180910390f35b61016e61058c565b005b6101786105a0565b6040516101859190610973565b60405180910390f35b6101a860048036038101906101a39190610ae8565b6105c9565b6040516101b59190610ba8565b60405180910390f35b6101d860048036038101906101d39190610d63565b610759565b005b600260009054906101000a900473ffffffffffffffffffffffffffffffffffffffff1681565b600083838360405160200161021793929190610dab565b6040516020818303038152906040528051906020012090509392505050565b600160205280600052604060002060009150905080600001805461025990610e26565b80601f016020809104026020016040519081016040528092919081815260200182805461028590610e26565b80156102d25780601f106102a7576101008083540402835291602001916102d2565b820191906000526020600020905b8154815290600101906020018083116102b557829003601f168201915b5050505050908060010180546102e790610e26565b80601f016020809104026020016040519081016040528092919081815260200182805461031390610e26565b80156103605780601f1061033557610100808354040283529160200191610360565b820191906000526020600020905b81548152906001019060200180831161034357829003601f168201915b50505050509080600201805461037590610e26565b80601f01602080910402602001604051908101604052809291908181526020018280546103a190610e26565b80156103ee5780601f106103c3576101008083540402835291602001916103ee565b820191906000526020600020905b8154815290600101906020018083116103d157829003601f168201915b5050505050908060030154908060040160009054906101000a900460ff16905085565b6104196107df565b600073ffffffffffffffffffffffffffffffffffffffff168173ffffffffffffffffffffffffffffffffffffffff1603610488576040517f08c379a000000000000000000000000000000000000000000000000000000000815260040161047f90610ea3565b60405180910390fd5b6000600260009054906101000a900473ffffffffffffffffffffffffffffffffffffffff16905081600260006101000a81548173ffffffffffffffffffffffffffffffffffffffff021916908373ffffffffffffffffffffffffffffffffffffffff1602179055508173ffffffffffffffffffffffffffffffffffffffff168173ffffffffffffffffffffffffffffffffffffffff167fe95bf9d3444498494dacd564ce4e91088aeb2b2908deff1297c8bc931cfff16a60405160405180910390a35050565b60008061055c858585610200565b90506001600082815260200190815260200160002060040160009054906101000a900460ff169150509392505050565b6105946107df565b61059e6000610866565b565b60008060009054906101000a900473ffffffffffffffffffffffffffffffffffffffff16905090565b6000600260009054906101000a900473ffffffffffffffffffffffffffffffffffffffff1673ffffffffffffffffffffffffffffffffffffffff163373ffffffffffffffffffffffffffffffffffffffff161461065b576040517f08c379a000000000000000000000000000000000000000000000000000000000815260040161065290610f0f565b60405180910390fd5b610666848484610200565b90506040518060a00160405280858152602001848152602001838152602001428152602001600115158152506001600083815260200190815260200160002060008201518160000190816106ba91906110db565b5060208201518160010190816106d091906110db565b5060408201518160020190816106e691906110db565b506060820151816003015560808201518160040160006101000a81548160ff021916908315150217905550905050807f692fdc6ed6106009308edb29e9bb0cc846603b71b461f298fa009615fa893e298585854260405161074a94939291906111ad565b60405180910390a29392505050565b6107616107df565b600073ffffffffffffffffffffffffffffffffffffffff168173ffffffffffffffffffffffffffffffffffffffff16036107d35760006040517f1e4fbdf70000000000000000000000000000000000000000000000000000000081526004016107ca9190610973565b60405180910390fd5b6107dc81610866565b50565b6107e761092a565b73ffffffffffffffffffffffffffffffffffffffff166108056105a0565b73ffffffffffffffffffffffffffffffffffffffff16146108645761082861092a565b6040517f118cdaa700000000000000000000000000000000000000000000000000000000815260040161085b9190610973565b60405180910390fd5b565b60008060009054906101000a900473ffffffffffffffffffffffffffffffffffffffff169050816000806101000a81548173ffffffffffffffffffffffffffffffffffffffff021916908373ffffffffffffffffffffffffffffffffffffffff1602179055508173ffffffffffffffffffffffffffffffffffffffff168173ffffffffffffffffffffffffffffffffffffffff167f8be0079c531659141344cd1fd0a4f28419497f9722a3daafe3b4186f6b6457e060405160405180910390a35050565b600033905090565b600073ffffffffffffffffffffffffffffffffffffffff82169050919050565b600061095d82610932565b9050919050565b61096d81610952565b82525050565b60006020820190506109886000830184610964565b92915050565b6000604051905090565b600080fd5b600080fd5b600080fd5b600080fd5b6000601f19601f8301169050919050565b7f4e487b7100000000000000000000000000000000000000000000000000000000600052604160045260246000fd5b6109f5826109ac565b810181811067ffffffffffffffff82111715610a1457610a136109bd565b5b80604052505050565b6000610a2761098e565b9050610a3382826109ec565b919050565b600067ffffffffffffffff821115610a5357610a526109bd565b5b610a5c826109ac565b9050602081019050919050565b82818337600083830152505050565b6000610a8b610a8684610a38565b610a1d565b905082815260208101848484011115610aa757610aa66109a7565b5b610ab2848285610a69565b509392505050565b600082601f830112610acf57610ace6109a2565b5b8135610adf848260208601610a78565b91505092915050565b600080600060608486031215610b0157610b00610998565b5b600084013567ffffffffffffffff811115610b1f57610b1e61099d565b5b610b2b86828701610aba565b935050602084013567ffffffffffffffff811115610b4c57610b4b61099d565b5b610b5886828701610aba565b925050604084013567ffffffffffffffff811115610b7957610b7861099d565b5b610b8586828701610aba565b9150509250925092565b6000819050919050565b610ba281610b8f565b82525050565b6000602082019050610bbd6000830184610b99565b92915050565b610bcc81610b8f565b8114610bd757600080fd5b50565b600081359050610be981610bc3565b92915050565b600060208284031215610c0557610c04610998565b5b6000610c1384828501610bda565b91505092915050565b600081519050919050565b600082825260208201905092915050565b60005b83811015610c56578082015181840152602081019050610c3b565b60008484015250505050565b6000610c6d82610c1c565b610c778185610c27565b9350610c87818560208601610c38565b610c90816109ac565b840191505092915050565b6000819050919050565b610cae81610c9b565b82525050565b60008115159050919050565b610cc981610cb4565b82525050565b600060a0820190508181036000830152610ce98188610c62565b90508181036020830152610cfd8187610c62565b90508181036040830152610d118186610c62565b9050610d206060830185610ca5565b610d2d6080830184610cc0565b9695505050505050565b610d4081610952565b8114610d4b57600080fd5b50565b600081359050610d5d81610d37565b92915050565b600060208284031215610d7957610d78610998565b5b6000610d8784828501610d4e565b91505092915050565b6000602082019050610da56000830184610cc0565b92915050565b60006060820190508181036000830152610dc58186610c62565b90508181036020830152610dd98185610c62565b90508181036040830152610ded8184610c62565b9050949350505050565b7f4e487b7100000000000000000000000000000000000000000000000000000000600052602260045260246000fd5b60006002820490506001821680610e3e57607f821691505b602082108103610e5157610e50610df7565b5b50919050565b7f4f7261636c652072657175697265640000000000000000000000000000000000600082015250565b6000610e8d600f83610c27565b9150610e9882610e57565b602082019050919050565b60006020820190508181036000830152610ebc81610e80565b9050919050565b7f4e6f7420617574686f72697a6564000000000000000000000000000000000000600082015250565b6000610ef9600e83610c27565b9150610f0482610ec3565b602082019050919050565b60006020820190508181036000830152610f2881610eec565b9050919050565b60008190508160005260206000209050919050565b60006020601f8301049050919050565b600082821b905092915050565b600060088302610f917fffffffffffffffffffffffffffffffffffffffffffffffffffffffffffffffff82610f54565b610f9b8683610f54565b95508019841693508086168417925050509392505050565b6000819050919050565b6000610fd8610fd3610fce84610c9b565b610fb3565b610c9b565b9050919050565b6000819050919050565b610ff283610fbd565b611006610ffe82610fdf565b848454610f61565b825550505050565b600090565b61101b61100e565b611026818484610fe9565b505050565b5b8181101561104a5761103f600082611013565b60018101905061102c565b5050565b601f82111561108f5761106081610f2f565b61106984610f44565b81016020851015611078578190505b61108c61108485610f44565b83018261102b565b50505b505050565b600082821c905092915050565b60006110b260001984600802611094565b1980831691505092915050565b60006110cb83836110a1565b9150826002028217905092915050565b6110e482610c1c565b67ffffffffffffffff8111156110fd576110fc6109bd565b5b6111078254610e26565b61111282828561104e565b600060209050601f8311600181146111455760008415611133578287015190505b61113d85826110bf565b8655506111a5565b601f19841661115386610f2f565b60005b8281101561117b57848901518255600182019150602085019450602081019050611156565b868310156111985784890151611194601f8916826110a1565b8355505b6001600288020188555050505b505050505050565b600060808201905081810360008301526111c78187610c62565b905081810360208301526111db8186610c62565b905081810360408301526111ef8185610c62565b90506111fe6060830184610ca5565b9594505050505056fea264697066735822122069d27e1382f2197319047d8a7891a3115b8b0a46486f948dc7aee2f2ab4a3b2764736f6c63430008180033",
  "linkReferences": {},
  "deployedLinkReferences": {}
}