{"contracts/ConnectionAgreement.sol":{"ConnectionAgreement":{"abi":[{"inputs":[{"internalType":"address","name":"initialParticipantA","type":"address"},{"internalType":"address","name":"initialParticipantB","type":"address"},{"internalType":"string","name":"initialConnectionType","type":"string"},{"internalType":"string","name":"initialMessage","type":"string"}],"stateMutability":"nonpayable","type":"constructor"},{"anonymous":false,"inputs":[{"indexed":true,"internalType":"address","name":"participantA","type":"address"},{"indexed":true,"internalType":"address","name":"participantB","type":"address"},{"indexed":false,"internalType":"string","name":"connectionType","type":"string"},{"indexed":false,"internalType":"string","name":"message","type":"string"},{"indexed":false,"internalType":"uint256","name":"connectedAt","type":"uint256"}],"name":"ConnectionActivated","type":"event"},{"inputs":[],"name":"connectedAt","outputs":[{"internalType":"uint256","name":"","type":"uint256"}],"stateMutability":"view","type":"function"},{"inputs":[],"name":"connectionType","outputs":[{"internalType":"string","name":"","type":"string"}],"stateMutability":"view","type":"function"},{"inputs":[],"name":"message","outputs":[{"internalType":"string","name":"","type":"string"}],"stateMutability":"view","type":"function"},{"inputs":[],"name":"participantA","outputs":[{"internalType":"address","name":"","type":"address"}],"stateMutability":"view","type":"function"},{"inputs":[],"name":"participantB","outputs":[{"internalType":"address","name":"","type":"address"}],"stateMutability":"view","type":"function"}],"evm":{"bytecode":{"linkReferences":{},"object":"60806040523480156200001157600080fd5b5060405162000ed338038062000ed38339818101604052810190620000379190620004a7565b600073ffffffffffffffffffffffffffffffffffffffff168473ffffffffffffffffffffffffffffffffffffffff1603620000a9576040517f08c379a0000000000000000000000000000000000000000000000000000000008152600401620000a090620005b8565b60405180910390fd5b600073ffffffffffffffffffffffffffffffffffffffff168373ffffffffffffffffffffffffffffffffffffffff16036200011b576040517f08c379a000000000000000000000000000000000000000000000000000000000815260040162000112906200062a565b60405180910390fd5b8273ffffffffffffffffffffffffffffffffffffffff168473ffffffffffffffffffffffffffffffffffffffff16036200018c576040517f08c379a000000000000000000000000000000000000000000000000000000000815260040162000183906200069c565b60405180910390fd5b836000806101000a81548173ffffffffffffffffffffffffffffffffffffffff021916908373ffffffffffffffffffffffffffffffffffffffff16021790555082600160006101000a81548173ffffffffffffffffffffffffffffffffffffffff021916908373ffffffffffffffffffffffffffffffffffffffff16021790555081600290816200021e919062000909565b50806003908162000230919062000909565b50426004819055508273ffffffffffffffffffffffffffffffffffffffff168473ffffffffffffffffffffffffffffffffffffffff167f52a99061bd72f4ea0e4e65171b9cee3a1f6717dc47603551b0929650bed5ff9484846004546040516200029d9392919062000a42565b60405180910390a35050505062000a8d565b6000604051905090565b600080fd5b600080fd5b600073ffffffffffffffffffffffffffffffffffffffff82169050919050565b6000620002f082620002c3565b9050919050565b6200030281620002e3565b81146200030e57600080fd5b50565b6000815190506200032281620002f7565b92915050565b600080fd5b600080fd5b6000601f19601f8301169050919050565b7f4e487b7100000000000000000000000000000000000000000000000000000000600052604160045260246000fd5b6200037d8262000332565b810181811067ffffffffffffffff821117156200039f576200039e62000343565b5b80604052505050565b6000620003b4620002af565b9050620003c2828262000372565b919050565b600067ffffffffffffffff821115620003e557620003e462000343565b5b620003f08262000332565b9050602081019050919050565b60005b838110156200041d57808201518184015260208101905062000400565b60008484015250505050565b6000620004406200043a84620003c7565b620003a8565b9050828152602081018484840111156200045f576200045e6200032d565b5b6200046c848285620003fd565b509392505050565b600082601f8301126200048c576200048b62000328565b5b81516200049e84826020860162000429565b91505092915050565b60008060008060808587031215620004c457620004c3620002b9565b5b6000620004d48782880162000311565b9450506020620004e78782880162000311565b935050604085015167ffffffffffffffff8111156200050b576200050a620002be565b5b620005198782880162000474565b925050606085015167ffffffffffffffff8111156200053d576200053c620002be565b5b6200054b8782880162000474565b91505092959194509250565b600082825260208201905092915050565b7f5061727469636970616e74204120726571756972656400000000000000000000600082015250565b6000620005a060168362000557565b9150620005ad8262000568565b602082019050919050565b60006020820190508181036000830152620005d38162000591565b9050919050565b7f5061727469636970616e74204220726571756972656400000000000000000000600082015250565b60006200061260168362000557565b91506200061f82620005da565b602082019050919050565b60006020820190508181036000830152620006458162000603565b9050919050565b7f44697374696e6374207061727469636970616e74732072657175697265640000600082015250565b600062000684601e8362000557565b915062000691826200064c565b602082019050919050565b60006020820190508181036000830152620006b78162000675565b9050919050565b600081519050919050565b7f4e487b7100000000000000000000000000000000000000000000000000000000600052602260045260246000fd5b600060028204905060018216806200071157607f821691505b602082108103620007275762000726620006c9565b5b50919050565b60008190508160005260206000209050919050565b60006020601f8301049050919050565b600082821b905092915050565b600060088302620007917fffffffffffffffffffffffffffffffffffffffffffffffffffffffffffffffff8262000752565b6200079d868362000752565b95508019841693508086168417925050509392505050565b6000819050919050565b6000819050919050565b6000620007ea620007e4620007de84620007b5565b620007bf565b620007b5565b9050919050565b6000819050919050565b6200080683620007c9565b6200081e6200081582620007f1565b8484546200075f565b825550505050565b600090565b6200083562000826565b62000842818484620007fb565b505050565b5b818110156200086a576200085e6000826200082b565b60018101905062000848565b5050565b601f821115620008b95762000883816200072d565b6200088e8462000742565b810160208510156200089e578190505b620008b6620008ad8562000742565b83018262000847565b50505b505050565b600082821c905092915050565b6000620008de60001984600802620008be565b1980831691505092915050565b6000620008f98383620008cb565b9150826002028217905092915050565b6200091482620006be565b67ffffffffffffffff81111562000930576200092f62000343565b5b6200093c8254620006f8565b620009498282856200086e565b600060209050601f8311600181146200098157600084156200096c578287015190505b620009788582620008eb565b865550620009e8565b601f19841662000991866200072d565b60005b82811015620009bb5784890151825560018201915060208501945060208101905062000994565b86831015620009db5784890151620009d7601f891682620008cb565b8355505b6001600288020188555050505b505050505050565b6000620009fd82620006be565b62000a09818562000557565b935062000a1b818560208601620003fd565b62000a268162000332565b840191505092915050565b62000a3c81620007b5565b82525050565b6000606082019050818103600083015262000a5e8186620009f0565b9050818103602083015262000a748185620009f0565b905062000a85604083018462000a31565b949350505050565b6104368062000a9d6000396000f3fe608060405234801561001057600080fd5b50600436106100575760003560e01c806339bbdd691461005c578063ac21b6f41461007a578063cb08778e14610098578063e21f37ce146100b6578063ff925fe5146100d4575b600080fd5b6100646100f2565b6040516100719190610277565b60405180910390f35b6100826100f8565b60405161008f91906102d3565b60405180910390f35b6100a061011c565b6040516100ad919061037e565b60405180910390f35b6100be6101aa565b6040516100cb919061037e565b60405180910390f35b6100dc610238565b6040516100e991906102d3565b60405180910390f35b60045481565b60008054906101000a900473ffffffffffffffffffffffffffffffffffffffff1681565b60028054610129906103cf565b80601f0160208091040260200160405190810160405280929190818152602001828054610155906103cf565b80156101a25780601f10610177576101008083540402835291602001916101a2565b820191906000526020600020905b81548152906001019060200180831161018557829003601f168201915b505050505081565b600380546101b7906103cf565b80601f01602080910402602001604051908101604052809291908181526020018280546101e3906103cf565b80156102305780601f1061020557610100808354040283529160200191610230565b820191906000526020600020905b81548152906001019060200180831161021357829003601f168201915b505050505081565b600160009054906101000a900473ffffffffffffffffffffffffffffffffffffffff1681565b6000819050919050565b6102718161025e565b82525050565b600060208201905061028c6000830184610268565b92915050565b600073ffffffffffffffffffffffffffffffffffffffff82169050919050565b60006102bd82610292565b9050919050565b6102cd816102b2565b82525050565b60006020820190506102e860008301846102c4565b92915050565b600081519050919050565b600082825260208201905092915050565b60005b8381101561032857808201518184015260208101905061030d565b60008484015250505050565b6000601f19601f8301169050919050565b6000610350826102ee565b61035a81856102f9565b935061036a81856020860161030a565b61037381610334565b840191505092915050565b600060208201905081810360008301526103988184610345565b905092915050565b7f4e487b7100000000000000000000000000000000000000000000000000000000600052602260045260246000fd5b600060028204905060018216806103e757607f821691505b6020821081036103fa576103f96103a0565b5b5091905056fea2646970667358221220a1aa9d592d1b6952ac27125b156e5c43e7d1f00248f17b84c31e4b679b55b5e064736f6c63430008180033","opcodes":"PUSH1 0x80 PUSH1 0x40 MSTORE CALLVALUE DUP1 ISZERO PUSH3 0x11 JUMPI PUSH1 0x0 DUP1 REVERT JUMPDEST POP PUSH1 0x40 MLOAD PUSH3 0xED3 CODESIZE SUB DUP1 PUSH3 0xED3 DUP4 CODECOPY DUP2 DUP2 ADD PUSH1 0x40 MSTORE DUP2 ADD SWAP1 PUSH3 0x37 SWAP2 SWAP1 PUSH3 0x4A7 JUMP JUMPDEST PUSH1 0x0 PUSH20 0xFFFFFFFFFFFFFFFFFFFFFFFFFFFFFFFFFFFFFFFF AND DUP5 PUSH20 0xFFFFFFFFFFFFFFFFFFFFFFFFFFFFFFFFFFFFFFFF AND SUB PUSH3 0xA9 JUMPI PUSH1 0x40 MLOAD PUSH32 0x8C379A000000000000000000000000000000000000000000000000000000000 DUP2 MSTORE PUSH1 0x4 ADD PUSH3 0xA0 SWAP1 PUSH3 0x5B8 JUMP JUMPDEST PUSH1 0x40 MLOAD DUP1 SWAP2 SUB SWAP1 REVERT JUMPDEST PUSH1 0x0 PUSH20 0xFFFFFFFFFFFFFFFFFFFFFFFFFFFFFFFFFFFFFFFF AND DUP4 PUSH20 0xFFFFFFFFFFFFFFFFFFFFFFFFFFFFFFFFFFFFFFFF AND SUB PUSH3 0x11B JUMPI PUSH1 0x40 MLOAD PUSH32 0x8C379A000000000000000000000000000000000000000000000000000000000 DUP2 MSTORE PUSH1 0x4 ADD PUSH3 0x112 SWAP1 PUSH3 0x62A JUMP JUMPDEST PUSH1 0x40 MLOAD DUP1 SWAP2 SUB SWAP1 REVERT JUMPDEST DUP3 PUSH20 0xFFFFFFFFFFFFFFFFFFFFFFFFFFFFFFFFFFFFFFFF AND DUP5 PUSH20 0xFFFFFFFFFFFFFFFFFFFFFFFFFFFFFFFFFFFFFFFF AND SUB PUSH3 0x18C JUMPI PUSH1 0x40 MLOAD PUSH32 0x8C379A000000000000000000000000000000000000000000000000000000000 DUP2 MSTORE PUSH1 0x4 ADD PUSH3 0x183 SWAP1 PUSH3 0x69C JUMP JUMPDEST PUSH1 0x40 MLOAD DUP1 SWAP2 SUB SWAP1 REVERT JUMPDEST DUP4 PUSH1 0x0 DUP1 PUSH2 0x100 EXP DUP2 SLOAD DUP2 PUSH20 0xFFFFFFFFFFFFFFFFFFFFFFFFFFFFFFFFFFFFFFFF MUL NOT AND SWAP1 DUP4 PUSH20 0xFFFFFFFFFFFFFFFFFFFFFFFFFFFFFFFFFFFFFFFF AND MUL OR SWAP1 SSTORE POP DUP3 PUSH1 0x1 PUSH1 0x0 PUSH2 0x100 EXP DUP2 SLOAD DUP2 PUSH20 0xFFFFFFFFFFFFFFFFFFFFFFFFFFFFFFFFFFFFFFFF MUL NOT AND SWAP1 DUP4 PUSH20 0xFFFFFFFFFFFFFFFFFFFFFFFFFFFFFFFFFFFFFFFF AND MUL OR SWAP1 SSTORE POP DUP2 PUSH1 0x2 SWAP1 DUP2 PUSH3 0x21E SWAP2 SWAP1 PUSH3 0x909 JUMP JUMPDEST POP DUP1 PUSH1 0x3 SWAP1 DUP2 PUSH3 0x230 SWAP2 SWAP1 PUSH3 0x909 JUMP JUMPDEST POP TIMESTAMP PUSH1 0x4 DUP2 SWAP1 SSTORE POP DUP3 PUSH20 0xFFFFFFFFFFFFFFFFFFFFFFFFFFFFFFFFFFFFFFFF AND DUP5 PUSH20 0xFFFFFFFFFFFFFFFFFFFFFFFFFFFFFFFFFFFFFFFF AND PUSH32 0x52A99061BD72F4EA0E4E65171B9CEE3A1F6717DC47603551B0929650BED5FF94 DUP5 DUP5 PUSH1 0x4 SLOAD PUSH1 0x40 MLOAD PUSH3 0x29D SWAP4 SWAP3 SWAP2 SWAP1 PUSH3 0xA42 JUMP JUMPDEST PUSH1 0x40 MLOAD DUP1 SWAP2 SUB SWAP1 LOG3 POP POP POP POP PUSH3 0xA8D JUMP JUMPDEST PUSH1 0x0 PUSH1 0x40 MLOAD SWAP1 POP SWAP1 JUMP JUMPDEST PUSH1 0x0 DUP1 REVERT JUMPDEST PUSH1 0x0 DUP1 REVERT JUMPDEST PUSH1 0x0 PUSH20 0xFFFFFFFFFFFFFFFFFFFFFFFFFFFFFFFFFFFFFFFF DUP3 AND SWAP1 POP SWAP2 SWAP1 POP JUMP JUMPDEST PUSH1 0x0 PUSH3 0x2F0 DUP3 PUSH3 0x2C3 JUMP JUMPDEST SWAP1 POP SWAP2 SWAP1 POP JUMP JUMPDEST PUSH3 0x302 DUP2 PUSH3 0x2E3 JUMP JUMPDEST DUP2 EQ PUSH3 0x30E JUMPI PUSH1 0x0 DUP1 REVERT JUMPDEST POP JUMP JUMPDEST PUSH1 0x0 DUP2 MLOAD SWAP1 POP PUSH3 0x322 DUP2 PUSH3 0x2F7 JUMP JUMPDEST SWAP3 SWAP2 POP POP JUMP JUMPDEST PUSH1 0x0 DUP1 REVERT JUMPDEST PUSH1 0x0 DUP1 REVERT JUMPDEST PUSH1 0x0 PUSH1 0x1F NOT PUSH1 0x1F DUP4 ADD AND SWAP1 POP SWAP2 SWAP1 POP JUMP JUMPDEST PUSH32 0x4E487B7100000000000000000000000000000000000000000000000000000000 PUSH1 0x0 MSTORE PUSH1 0x41 PUSH1 0x4 MSTORE PUSH1 0x24 PUSH1 0x0 REVERT JUMPDEST PUSH3 0x37D DUP3 PUSH3 0x332 JUMP JUMPDEST DUP2 ADD DUP2 DUP2 LT PUSH8 0xFFFFFFFFFFFFFFFF DUP3 GT OR ISZERO PUSH3 0x39F JUMPI PUSH3 0x39E PUSH3 0x343 JUMP JUMPDEST JUMPDEST DUP1 PUSH1 0x40 MSTORE POP POP POP JUMP JUMPDEST PUSH1 0x0 PUSH3 0x3B4 PUSH3 0x2AF JUMP JUMPDEST SWAP1 POP PUSH3 0x3C2 DUP3 DUP3 PUSH3 0x372 JUMP JUMPDEST SWAP2 SWAP1 POP JUMP JUMPDEST PUSH1 0x0 PUSH8 0xFFFFFFFFFFFFFFFF DUP3 GT ISZERO PUSH3 0x3E5 JUMPI PUSH3 0x3E4 PUSH3 0x343 JUMP JUMPDEST JUMPDEST PUSH3 0x3F0 DUP3 PUSH3 0x332 JUMP JUMPDEST SWAP1 POP PUSH1 0x20 DUP2 ADD SWAP1 POP SWAP2 SWAP1 POP JUMP JUMPDEST PUSH1 0x0 JUMPDEST DUP4 DUP2 LT ISZERO PUSH3 0x41D JUMPI DUP1 DUP3 ADD MLOAD DUP2 DUP5 ADD MSTORE PUSH1 0x20 DUP2 ADD SWAP1 POP PUSH3 0x400 JUMP JUMPDEST PUSH1 0x0 DUP5 DUP5 ADD MSTORE POP POP POP POP JUMP JUMPDEST PUSH1 0x0 PUSH3 0x440 PUSH3 0x43A DUP5 PUSH3 0x3C7 JUMP JUMPDEST PUSH3 0x3A8 JUMP JUMPDEST SWAP1 POP DUP3 DUP2 MSTORE PUSH1 0x20 DUP2 ADD DUP5 DUP5 DUP5 ADD GT ISZERO PUSH3 0x45F JUMPI PUSH3 0x45E PUSH3 0x32D JUMP JUMPDEST JUMPDEST PUSH3 0x46C DUP5 DUP3 DUP6 PUSH3 0x3FD JUMP JUMPDEST POP SWAP4 SWAP3 POP POP POP JUMP JUMPDEST PUSH1 0x0 DUP3 PUSH1 0x1F DUP4 ADD SLT PUSH3 0x48C JUMPI PUSH3 0x48B PUSH3 0x328 JUMP JUMPDEST JUMPDEST DUP2 MLOAD PUSH3 0x49E DUP5 DUP3 PUSH1 0x20 DUP7 ADD PUSH3 0x429 JUMP JUMPDEST SWAP2 POP POP SWAP3 SWAP2 POP POP JUMP JUMPDEST PUSH1 0x0 DUP1 PUSH1 0x0 DUP1 PUSH1 0x80 DUP6 DUP8 SUB SLT ISZERO PUSH3 0x4C4 JUMPI PUSH3 0x4C3 PUSH3 0x2B9 JUMP JUMPDEST JUMPDEST PUSH1 0x0 PUSH3 0x4D4 DUP8 DUP3 DUP9 ADD PUSH3 0x311 JUMP JUMPDEST SWAP5 POP POP PUSH1 0x20 PUSH3 0x4E7 DUP8 DUP3 DUP9 ADD PUSH3 0x311 JUMP JUMPDEST SWAP4 POP POP PUSH1 0x40 DUP6 ADD MLOAD PUSH8 0xFFFFFFFFFFFFFFFF DUP2 GT ISZERO PUSH3 0x50B JUMPI PUSH3 0x50A PUSH3 0x2BE JUMP JUMPDEST JUMPDEST PUSH3 0x519 DUP8 DUP3 DUP9 ADD PUSH3 0x474 JUMP JUMPDEST SWAP3 POP POP PUSH1 0x60 DUP6 ADD MLOAD PUSH8 0xFFFFFFFFFFFFFFFF DUP2 GT ISZERO PUSH3 0x53D JUMPI PUSH3 0x53C PUSH3 0x2BE JUMP JUMPDEST JUMPDEST PUSH3 0x54B DUP8 DUP3 DUP9 ADD PUSH3 0x474 JUMP JUMPDEST SWAP2 POP POP SWAP3 SWAP6 SWAP2 SWAP5 POP SWAP3 POP JUMP JUMPDEST PUSH1 0x0 DUP3 DUP3 MSTORE PUSH1 0x20 DUP3 ADD SWAP1 POP SWAP3 SWAP2 POP POP JUMP JUMPDEST PUSH32 0x5061727469636970616E74204120726571756972656400000000000000000000 PUSH1 0x0 DUP3 ADD MSTORE POP JUMP JUMPDEST PUSH1 0x0 PUSH3 0x5A0 PUSH1 0x16 DUP4 PUSH3 0x557 JUMP JUMPDEST SWAP2 POP PUSH3 0x5AD DUP3 PUSH3 0x568 JUMP JUMPDEST PUSH1 0x20 DUP3 ADD SWAP1 POP SWAP2 SWAP1 POP JUMP JUMPDEST PUSH1 0x0 PUSH1 0x20 DUP3 ADD SWAP1 POP DUP2 DUP2 SUB PUSH1 0x0 DUP4 ADD MSTORE PUSH3 0x5D3 DUP2 PUSH3 0x591 JUMP JUMPDEST SWAP1 POP SWAP2 SWAP1 POP JUMP JUMPDEST PUSH32 0x5061727469636970616E74204220726571756972656400000000000000000000 PUSH1 0x0 DUP3 ADD MSTORE POP JUMP JUMPDEST PUSH1 0x0 PUSH3 0x612 PUSH1 0x16 DUP4 PUSH3 0x557 JUMP JUMPDEST SWAP2 POP PUSH3 0x61F DUP3 PUSH3 0x5DA JUMP JUMPDEST PUSH1 0x20 DUP3 ADD SWAP1 POP SWAP2 SWAP1 POP JUMP JUMPDEST PUSH1 0x0 PUSH1 0x20 DUP3 ADD SWAP1 POP DUP2 DUP2 SUB PUSH1 0x0 DUP4 ADD MSTORE PUSH3 0x645 DUP2 PUSH3 0x603 JUMP JUMPDEST SWAP1 POP SWAP2 SWAP1 POP JUMP JUMPDEST PUSH32 0x44697374696E6374207061727469636970616E74732072657175697265640000 PUSH1 0x0 DUP3 ADD MSTORE POP JUMP JUMPDEST PUSH1 0x0 PUSH3 0x684 PUSH1 0x1E DUP4 PUSH3 0x557 JUMP JUMPDEST SWAP2 POP PUSH3 0x691 DUP3 PUSH3 0x64C JUMP JUMPDEST PUSH1 0x20 DUP3 ADD SWAP1 POP SWAP2 SWAP1 POP JUMP JUMPDEST PUSH1 0x0 PUSH1 0x20 DUP3 ADD SWAP1 POP DUP2 DUP2 SUB PUSH1 0x0 DUP4 ADD MSTORE PUSH3 0x6B7 DUP2 PUSH3 0x675 JUMP JUMPDEST SWAP1 POP SWAP2 SWAP1 POP JUMP JUMPDEST PUSH1 0x0 DUP2 MLOAD SWAP1 POP SWAP2 SWAP1 POP JUMP JUMPDEST PUSH32 0x4E487B7100000000000000000000000000000000000000000000000000000000 PUSH1 0x0 MSTORE PUSH1 0x22 PUSH1 0x4 MSTORE PUSH1 0x24 PUSH1 0x0 REVERT JUMPDEST PUSH1 0x0 PUSH1 0x2 DUP3 DIV SWAP1 POP PUSH1 0x1 DUP3 AND DUP1 PUSH3 0x711 JUMPI PUSH1 0x7F DUP3 AND SWAP2 POP JUMPDEST PUSH1 0x20 DUP3 LT DUP2 SUB PUSH3 0x727 JUMPI PUSH3 0x726 PUSH3 0x6C9 JUMP JUMPDEST JUMPDEST POP SWAP2 SWAP1 POP JUMP JUMPDEST PUSH1 0x0 DUP2 SWAP1 POP DUP2 PUSH1 0x0 MSTORE PUSH1 0x20 PUSH1 0x0 KECCAK256 SWAP1 POP SWAP2 SWAP1 POP JUMP JUMPDEST PUSH1 0x0 PUSH1 0x20 PUSH1 0x1F DUP4 ADD DIV SWAP1 POP SWAP2 SWAP1 POP JUMP JUMPDEST PUSH1 0x0 DUP3 DUP3 SHL SWAP1 POP SWAP3 SWAP2 POP POP JUMP JUMPDEST PUSH1 0x0 PUSH1 0x8 DUP4 MUL PUSH3 0x791 PUSH32 0xFFFFFFFFFFFFFFFFFFFFFFFFFFFFFFFFFFFFFFFFFFFFFFFFFFFFFFFFFFFFFFFF DUP3 PUSH3 0x752 JUMP JUMPDEST PUSH3 0x79D DUP7 DUP4 PUSH3 0x752 JUMP JUMPDEST SWAP6 POP DUP1 NOT DUP5 AND SWAP4 POP DUP1 DUP7 AND DUP5 OR SWAP3 POP POP POP SWAP4 SWAP3 POP POP POP JUMP JUMPDEST PUSH1 0x0 DUP2 SWAP1 POP SWAP2 SWAP1 POP JUMP JUMPDEST PUSH1 0x0 DUP2 SWAP1 POP SWAP2 SWAP1 POP JUMP JUMPDEST PUSH1 0x0 PUSH3 0x7EA PUSH3 0x7E4 PUSH3 0x7DE DUP5 PUSH3 0x7B5 JUMP JUMPDEST PUSH3 0x7BF JUMP JUMPDEST PUSH3 0x7B5 JUMP JUMPDEST SWAP1 POP SWAP2 SWAP1 POP JUMP JUMPDEST PUSH1 0x0 DUP2 SWAP1 POP SWAP2 SWAP1 POP JUMP JUMPDEST PUSH3 0x806 DUP4 PUSH3 0x7C9 JUMP JUMPDEST PUSH3 0x81E PUSH3 0x815 DUP3 PUSH3 0x7F1 JUMP JUMPDEST DUP5 DUP5 SLOAD PUSH3 0x75F JUMP JUMPDEST DUP3 SSTORE POP POP POP POP JUMP JUMPDEST PUSH1 0x0 SWAP1 JUMP JUMPDEST PUSH3 0x835 PUSH3 0x826 JUMP JUMPDEST PUSH3 0x842 DUP2 DUP5 DUP5 PUSH3 0x7FB JUMP JUMPDEST POP POP POP JUMP JUMPDEST JUMPDEST DUP2 DUP2 LT ISZERO PUSH3 0x86A JUMPI PUSH3 0x85E PUSH1 0x0 DUP3 PUSH3 0x82B JUMP JUMPDEST PUSH1 0x1 DUP2 ADD SWAP1 POP PUSH3 0x848 JUMP JUMPDEST POP POP JUMP JUMPDEST PUSH1 0x1F DUP3 GT ISZERO PUSH3 0x8B9 JUMPI PUSH3 0x883 DUP2 PUSH3 0x72D JUMP JUMPDEST PUSH3 0x88E DUP5 PUSH3 0x742 JUMP JUMPDEST DUP2 ADD PUSH1 0x20 DUP6 LT ISZERO PUSH3 0x89E JUMPI DUP2 SWAP1 POP JUMPDEST PUSH3 0x8B6 PUSH3 0x8AD DUP6 PUSH3 0x742 JUMP JUMPDEST DUP4 ADD DUP3 PUSH3 0x847 JUMP JUMPDEST POP POP JUMPDEST POP POP POP JUMP JUMPDEST PUSH1 0x0 DUP3 DUP3 SHR SWAP1 POP SWAP3 SWAP2 POP POP JUMP JUMPDEST PUSH1 0x0 PUSH3 0x8DE PUSH1 0x0 NOT DUP5 PUSH1 0x8 MUL PUSH3 0x8BE JUMP JUMPDEST NOT DUP1 DUP4 AND SWAP2 POP POP SWAP3 SWAP2 POP POP JUMP JUMPDEST PUSH1 0x0 PUSH3 0x8F9 DUP4 DUP4 PUSH3 0x8CB JUMP JUMPDEST SWAP2 POP DUP3 PUSH1 0x2 MUL DUP3 OR SWAP1 POP SWAP3 SWAP2 POP POP JUMP JUMPDEST PUSH3 0x914 DUP3 PUSH3 0x6BE JUMP JUMPDEST PUSH8 0xFFFFFFFFFFFFFFFF DUP2 GT ISZERO PUSH3 0x930 JUMPI PUSH3 0x92F PUSH3 0x343 JUMP JUMPDEST JUMPDEST PUSH3 0x93C DUP3 SLOAD PUSH3 0x6F8 JUMP JUMPDEST PUSH3 0x949 DUP3 DUP3 DUP6 PUSH3 0x86E JUMP JUMPDEST PUSH1 0x0 PUSH1 0x20 SWAP1 POP PUSH1 0x1F DUP4 GT PUSH1 0x1 DUP2 EQ PUSH3 0x981 JUMPI PUSH1 0x0 DUP5 ISZERO PUSH3 0x96C JUMPI DUP3 DUP8 ADD MLOAD SWAP1 POP JUMPDEST PUSH3 0x978 DUP6 DUP3 PUSH3 0x8EB JUMP JUMPDEST DUP7 SSTORE POP PUSH3 0x9E8 JUMP JUMPDEST PUSH1 0x1F NOT DUP5 AND PUSH3 0x991 DUP7 PUSH3 0x72D JUMP JUMPDEST PUSH1 0x0 JUMPDEST DUP3 DUP2 LT ISZERO PUSH3 0x9BB JUMPI DUP5 DUP10 ADD MLOAD DUP3 SSTORE PUSH1 0x1 DUP3 ADD SWAP2 POP PUSH1 0x20 DUP6 ADD SWAP5 POP PUSH1 0x20 DUP2 ADD SWAP1 POP PUSH3 0x994 JUMP JUMPDEST DUP7 DUP4 LT ISZERO PUSH3 0x9DB JUMPI DUP5 DUP10 ADD MLOAD PUSH3 0x9D7 PUSH1 0x1F DUP10 AND DUP3 PUSH3 0x8CB JUMP JUMPDEST DUP4 SSTORE POP JUMPDEST PUSH1 0x1 PUSH1 0x2 DUP9 MUL ADD DUP9 SSTORE POP POP POP JUMPDEST POP POP POP POP POP POP JUMP JUMPDEST PUSH1 0x0 PUSH3 0x9FD DUP3 PUSH3 0x6BE JUMP JUMPDEST PUSH3 0xA09 DUP2 DUP6 PUSH3 0x557 JUMP JUMPDEST SWAP4 POP PUSH3 0xA1B DUP2 DUP6 PUSH1 0x20 DUP7 ADD PUSH3 0x3FD JUMP JUMPDEST PUSH3 0xA26 DUP2 PUSH3 0x332 JUMP JUMPDEST DUP5 ADD SWAP2 POP POP SWAP3 SWAP2 POP POP JUMP JUMPDEST PUSH3 0xA3C DUP2 PUSH3 0x7B5 JUMP JUMPDEST DUP3 MSTORE POP POP JUMP JUMPDEST PUSH1 0x0 PUSH1 0x60 DUP3 ADD SWAP1 POP DUP2 DUP2 SUB PUSH1 0x0 DUP4 ADD MSTORE PUSH3 0xA5E DUP2 DUP7 PUSH3 0x9F0 JUMP JUMPDEST SWAP1 POP DUP2 DUP2 SUB PUSH1 0x20 DUP4 ADD MSTORE PUSH3 0xA74 DUP2 DUP6 PUSH3 0x9F0 JUMP JUMPDEST SWAP1 POP PUSH3 0xA85 PUSH1 0x40 DUP4 ADD DUP5 PUSH3 0xA31 JUMP JUMPDEST SWAP5 SWAP4 POP POP POP POP JUMP JUMPDEST PUSH2 0x436 DUP1 PUSH3 0xA9D PUSH1 0x0 CODECOPY PUSH1 0x0 RETURN INVALID PUSH1 0x80 PUSH1 0x40 MSTORE CALLVALUE DUP1 ISZERO PUSH2 0x10 JUMPI PUSH1 0x0 DUP1 REVERT JUMPDEST POP PUSH1 0x4 CALLDATASIZE LT PUSH2 0x57 JUMPI PUSH1 0x0 CALLDATALOAD PUSH1 0xE0 SHR DUP1 PUSH4 0x39BBDD69 EQ PUSH2 0x5C JUMPI DUP1 PUSH4 0xAC21B6F4 EQ PUSH2 0x7A JUMPI DUP1 PUSH4 0xCB08778E EQ PUSH2 0x98 JUMPI DUP1 PUSH4 0xE21F37CE EQ PUSH2 0xB6 JUMPI DUP1 PUSH4 0xFF925FE5 EQ PUSH2 0xD4 JUMPI JUMPDEST PUSH1 0x0 DUP1 REVERT JUMPDEST PUSH2 0x64 PUSH2 0xF2 JUMP JUMPDEST PUSH1 0x40 MLOAD PUSH2 0x71 SWAP2 SWAP1 PUSH2 0x277 JUMP JUMPDEST PUSH1 0x40 MLOAD DUP1 SWAP2 SUB SWAP1 RETURN JUMPDEST PUSH2 0x82 PUSH2 0xF8 JUMP JUMPDEST PUSH1 0x40 MLOAD PUSH2 0x8F SWAP2 SWAP1 PUSH2 0x2D3 JUMP JUMPDEST PUSH1 0x40 MLOAD DUP1 SWAP2 SUB SWAP1 RETURN JUMPDEST PUSH2 0xA0 PUSH2 0x11C JUMP JUMPDEST PUSH1 0x40 MLOAD PUSH2 0xAD SWAP2 SWAP1 PUSH2 0x37E JUMP JUMPDEST PUSH1 0x40 MLOAD DUP1 SWAP2 SUB SWAP1 RETURN JUMPDEST PUSH2 0xBE PUSH2 0x1AA JUMP JUMPDEST PUSH1 0x40 MLOAD PUSH2 0xCB SWAP2 SWAP1 PUSH2 0x37E JUMP JUMPDEST PUSH1 0x40 MLOAD DUP1 SWAP2 SUB SWAP1 RETURN JUMPDEST PUSH2 0xDC PUSH2 0x238 JUMP JUMPDEST PUSH1 0x40 MLOAD PUSH2 0xE9 SWAP2 SWAP1 PUSH2 0x2D3 JUMP JUMPDEST PUSH1 0x40 MLOAD DUP1 SWAP2 SUB SWAP1 RETURN JUMPDEST PUSH1 0x4 SLOAD DUP2 JUMP JUMPDEST PUSH1 0x0 DUP1 SLOAD SWAP1 PUSH2 0x100 EXP SWAP1 DIV PUSH20 0xFFFFFFFFFFFFFFFFFFFFFFFFFFFFFFFFFFFFFFFF AND DUP2 JUMP JUMPDEST PUSH1 0x2 DUP1 SLOAD PUSH2 0x129 SWAP1 PUSH2 0x3CF JUMP JUMPDEST DUP1 PUSH1 0x1F ADD PUSH1 0x20 DUP1 SWAP2 DIV MUL PUSH1 0x20 ADD PUSH1 0x40 MLOAD SWAP1 DUP2 ADD PUSH1 0x40 MSTORE DUP1 SWAP3 SWAP2 SWAP1 DUP2 DUP2 MSTORE PUSH1 0x20 ADD DUP3 DUP1 SLOAD PUSH2 0x155 SWAP1 PUSH2 0x3CF JUMP JUMPDEST DUP1 ISZERO PUSH2 0x1A2 JUMPI DUP1 PUSH1 0x1F LT PUSH2 0x177 JUMPI PUSH2 0x100 DUP1 DUP4 SLOAD DIV MUL DUP4 MSTORE SWAP2 PUSH1 0x20 ADD SWAP2 PUSH2 0x1A2 JUMP JUMPDEST DUP3 ADD SWAP2 SWAP1 PUSH1 0x0 MSTORE PUSH1 0x20 PUSH1 0x0 KECCAK256 SWAP1 JUMPDEST DUP2 SLOAD DUP2 MSTORE SWAP1 PUSH1 0x1 ADD SWAP1 PUSH1 0x20 ADD DUP1 DUP4 GT PUSH2 0x185 JUMPI DUP3 SWAP1 SUB PUSH1 0x1F AND DUP3 ADD SWAP2 JUMPDEST POP POP POP POP POP DUP2 JUMP JUMPDEST PUSH1 0x3 DUP1 SLOAD PUSH2 0x1B7 SWAP1 PUSH2 0x3CF JUMP JUMPDEST DUP1 PUSH1 0x1F ADD PUSH1 0x20 DUP1 SWAP2 DIV MUL PUSH1 0x20 ADD PUSH1 0x40 MLOAD SWAP1 DUP2 ADD PUSH1 0x40 MSTORE DUP1 SWAP3 SWAP2 SWAP1 DUP2 DUP2 MSTORE PUSH1 0x20 ADD DUP3 DUP1 SLOAD PUSH2 0x1E3 SWAP1 PUSH2 0x3CF JUMP JUMPDEST DUP1 ISZERO PUSH2 0x230 JUMPI DUP1 PUSH1 0x1F LT PUSH2 0x205 JUMPI PUSH2 0x100 DUP1 DUP4 SLOAD DIV MUL DUP4 MSTORE SWAP2 PUSH1 0x20 ADD SWAP2 PUSH2 0x230 JUMP JUMPDEST DUP3 ADD SWAP2 SWAP1 PUSH1 0x0 MSTORE PUSH1 0x20 PUSH1 0x0 KECCAK256 SWAP1 JUMPDEST DUP2 SLOAD DUP2 MSTORE SWAP1 PUSH1 0x1 ADD SWAP1 PUSH1 0x20 ADD DUP1 DUP4 GT PUSH2 0x213 JUMPI DUP3 SWAP1 SUB PUSH1 0x1F AND DUP3 ADD SWAP2 JUMPDEST POP POP POP POP POP DUP2 JUMP JUMPDEST PUSH1 0x1 PUSH1 0x0 SWAP1 SLOAD SWAP1 PUSH2 0x100 EXP SWAP1 DIV PUSH20 0xFFFFFFFFFFFFFFFFFFFFFFFFFFFFFFFFFFFFFFFF AND DUP2 JUMP JUMPDEST PUSH1 0x0 DUP2 SWAP1 POP SWAP2 SWAP1 POP JUMP JUMPDEST PUSH2 0x271 DUP2 PUSH2 0x25E JUMP JUMPDEST DUP3 MSTORE POP POP JUMP JUMPDEST PUSH1 0x0 PUSH1 0x20 DUP3 ADD SWAP1 POP PUSH2 0x28C PUSH1 0x0 DUP4 ADD DUP5 PUSH2 0x268 JUMP JUMPDEST SWAP3 SWAP2 POP POP JUMP JUMPDEST PUSH1 0x0 PUSH20 0xFFFFFFFFFFFFFFFFFFFFFFFFFFFFFFFFFFFFFFFF DUP3 AND SWAP1 POP SWAP2 SWAP1 POP JUMP JUMPDEST PUSH1 0x0 PUSH2 0x2BD DUP3 PUSH2 0x292 JUMP JUMPDEST SWAP1 POP SWAP2 SWAP1 POP JUMP JUMPDEST PUSH2 0x2CD DUP2 PUSH2 0x2B2 JUMP JUMPDEST DUP3 MSTORE POP POP JUMP JUMPDEST PUSH1 0x0 PUSH1 0x20 DUP3 ADD SWAP1 POP PUSH2 0x2E8 PUSH1 0x0 DUP4 ADD DUP5 PUSH2 0x2C4 JUMP JUMPDEST SWAP3 SWAP2 POP POP JUMP JUMPDEST PUSH1 0x0 DUP2 MLOAD SWAP1 POP SWAP2 SWAP1 POP JUMP JUMPDEST PUSH1 0x0 DUP3 DUP3 MSTORE PUSH1 0x20 DUP3 ADD SWAP1 POP SWAP3 SWAP2 POP POP JUMP JUMPDEST PUSH1 0x0 JUMPDEST DUP4 DUP2 LT ISZERO PUSH2 0x328 JUMPI DUP1 DUP3 ADD MLOAD DUP2 DUP5 ADD MSTORE PUSH1 0x20 DUP2 ADD SWAP1 POP PUSH2 0x30D JUMP JUMPDEST PUSH1 0x0 DUP5 DUP5 ADD MSTORE POP POP POP POP JUMP JUMPDEST PUSH1 0x0 PUSH1 0x1F NOT PUSH1 0x1F DUP4 ADD AND SWAP1 POP SWAP2 SWAP1 POP JUMP JUMPDEST PUSH1 0x0 PUSH2 0x350 DUP3 PUSH2 0x2EE JUMP JUMPDEST PUSH2 0x35A DUP2 DUP6 PUSH2 0x2F9 JUMP JUMPDEST SWAP4 POP PUSH2 0x36A DUP2 DUP6 PUSH1 0x20 DUP7 ADD PUSH2 0x30A JUMP JUMPDEST PUSH2 0x373 DUP2 PUSH2 0x334 JUMP JUMPDEST DUP5 ADD SWAP2 POP POP SWAP3 SWAP2 POP POP JUMP JUMPDEST PUSH1 0x0 PUSH1 0x20 DUP3 ADD SWAP1 POP DUP2 DUP2 SUB PUSH1 0x0 DUP4 ADD MSTORE PUSH2 0x398 DUP2 DUP5 PUSH2 0x345 JUMP JUMPDEST SWAP1 POP SWAP3 SWAP2 POP POP JUMP JUMPDEST PUSH32 0x4E487B7100000000000000000000000000000000000000000000000000000000 PUSH1 0x0 MSTORE PUSH1 0x22 PUSH1 0x4 MSTORE PUSH1 0x24 PUSH1 0x0 REVERT JUMPDEST PUSH1 0x0 PUSH1 0x2 DUP3 DIV SWAP1 POP PUSH1 0x1 DUP3 AND DUP1 PUSH2 0x3E7 JUMPI PUSH1 0x7F DUP3 AND SWAP2 POP JUMPDEST PUSH1 0x20 DUP3 LT DUP2 SUB PUSH2 0x3FA JUMPI PUSH2 0x3F9 PUSH2 0x3A0 JUMP JUMPDEST JUMPDEST POP SWAP2 SWAP1 POP JUMP INVALID LOG2 PUSH5 0x6970667358 0x22 SLT KECCAK256 LOG1 0xAA SWAP14 MSIZE 0x2D SHL PUSH10 0x52AC27125B156E5C43E7 0xD1 CREATE MUL BASEFEE CALL PUSH28 0x84C31E4B679B55B5E064736F6C634300081800330000000000000000 "},"methodIdentifiers":{"connectedAt()":"39bbdd69","connectionType()":"cb08778e","message()":"e21f37ce","participantA()":"ac21b6f4","participantB()":"ff925fe5"}}}}}