{
  "_format": "hh-sol-artifact-1",
  "contractName": "PortfolioRegistry",
  "sourceName": "contracts/PortfolioRegistry.sol",
  "abi": [
    {
      "anonymous": false,
      "inputs": [
        {
          "indexed": true,
          "internalType": "address",
          "name": "investor",
          "type": "address"
        },
        {
          "indexed": false,
          "internalType": "uint256",
          "name": "companyCount",
          "type": "uint256"
        },
        {
          "indexed": false,
          "internalType": "uint256",
          "name": "founderCount",
          "type": "uint256"
        }
      ],
      "name": "PortfolioUpdated",
      "type": "event"
    },
    {
      "inputs": [
        {
          "internalType": "address",
          "name": "investor",
          "type": "address"
        }
      ],
      "name": "getCompanies",
      "outputs": [
        {
          "internalType": "string[]",
          "name": "",
          "type": "string[]"
        }
      ],
      "stateMutability": "view",
      "type": "function"
    },
    {
      "inputs": [
        {
          "internalType": "address",
          "name": "investor",
          "type": "address"
        }
      ],
      "name": "getFounders",
      "outputs": [
        {
          "internalType": "string[]",
          "name": "",
          "type": "string[]"
        }
      ],
      "stateMutability": "view",
      "type": "function"
    },
    {
      "inputs": [
        {
          "internalType": "address",
          "name": "investor",
          "type": "address"
        }
      ],
      "name": "getPortfolio",
      "outputs": [
        {
          "components": [
            {
              "internalType": "address",
              "name": "investor",
              "type": "address"
            },
            {
              "internalType": "string[]",
              "name": "companies",
              "type": "string[]"
            },
            {
              "internalType": "string[]",
              "name": "founders",
              "type": "string[]"
            }
          ],
          "internalType": "struct PortfolioRegistry.Portfolio",
          "name": "",
          "type": "tuple"
        }
      ],
      "stateMutability": "view",
      "type": "function"
    },
    {
      "inputs": [
        {
          "internalType": "address",
          "name": "investor",
          "type": "address"
        },
        {
          "internalType": "string",
          "name": "entity",
          "type": "string"
        }
      ],
      "name": "isEntityInPortfolio",
      "outputs": [
        {
          "internalType": "bool",
          "name": "",
          "type": "bool"
        }
      ],
      "stateMutability": "view",
      "type": "function"
    },
    {
      "inputs": [
        {
          "internalType": "string[]",
          "name": "companies",
          "type": "string[]"
        },
        {
          "internalType": "string[]",
          "name": "founders",
          "type": "string[]"
        }
      ],
      "name": "registerPortfolio",
      "outputs": [],
      "stateMutability": "nonpayable",
      "type": "function"
    }
  ],
  "bytecode": "0x608060405234801561001057600080fd5b50611391806100206000396000f3fe608060405234801561001057600080fd5b50600436106100575760003560e01c8063259b7e191461005c57806325c2a82d1461007857806368b67d07146100a8578063e05a0a34146100d8578063eb22ae1114610108575b600080fd5b61007660048036038101906100719190610b4c565b610138565b005b610092600480360381019061008d9190610c22565b610281565b60405161009f9190610d90565b60405180910390f35b6100c260048036038101906100bd9190610db2565b61039b565b6040516100cf9190610e29565b60405180910390f35b6100f260048036038101906100ed9190610c22565b610408565b6040516100ff9190610d90565b60405180910390f35b610122600480360381019061011d9190610c22565b610522565b60405161012f9190610f30565b60405180910390f35b60405180606001604052803373ffffffffffffffffffffffffffffffffffffffff168152602001838152602001828152506000803373ffffffffffffffffffffffffffffffffffffffff1673ffffffffffffffffffffffffffffffffffffffff16815260200190815260200160002060008201518160000160006101000a81548173ffffffffffffffffffffffffffffffffffffffff021916908373ffffffffffffffffffffffffffffffffffffffff160217905550602082015181600101908051906020019061020a9291906107fb565b5060408201518160020190805190602001906102279291906107fb565b509050503373ffffffffffffffffffffffffffffffffffffffff167fcbff4b287a05654572586caaafbaab3ae0d416731d7bf1fdf5197c29b14c9e7e83518351604051610275929190610f6b565b60405180910390a25050565b60606000808373ffffffffffffffffffffffffffffffffffffffff1673ffffffffffffffffffffffffffffffffffffffff168152602001908152602001600020600101805480602002602001604051908101604052809291908181526020016000905b8282101561039057838290600052602060002001805461030390610fc3565b80601f016020809104026020016040519081016040528092919081815260200182805461032f90610fc3565b801561037c5780601f106103515761010080835404028352916020019161037c565b820191906000526020600020905b81548152906001019060200180831161035f57829003601f168201915b5050505050815260200190600101906102e4565b505050509050919050565b6000806000808573ffffffffffffffffffffffffffffffffffffffff1673ffffffffffffffffffffffffffffffffffffffff16815260200190815260200160002090506103eb8382600101610782565b806103ff57506103fe8382600201610782565b5b91505092915050565b60606000808373ffffffffffffffffffffffffffffffffffffffff1673ffffffffffffffffffffffffffffffffffffffff168152602001908152602001600020600201805480602002602001604051908101604052809291908181526020016000905b8282101561051757838290600052602060002001805461048a90610fc3565b80601f01602080910402602001604051908101604052809291908181526020018280546104b690610fc3565b80156105035780601f106104d857610100808354040283529160200191610503565b820191906000526020600020905b8154815290600101906020018083116104e657829003601f168201915b50505050508152602001906001019061046b565b505050509050919050565b61052a610854565b6000808373ffffffffffffffffffffffffffffffffffffffff1673ffffffffffffffffffffffffffffffffffffffff1681526020019081526020016000206040518060600160405290816000820160009054906101000a900473ffffffffffffffffffffffffffffffffffffffff1673ffffffffffffffffffffffffffffffffffffffff1673ffffffffffffffffffffffffffffffffffffffff16815260200160018201805480602002602001604051908101604052809291908181526020016000905b8282101561069a57838290600052602060002001805461060d90610fc3565b80601f016020809104026020016040519081016040528092919081815260200182805461063990610fc3565b80156106865780601f1061065b57610100808354040283529160200191610686565b820191906000526020600020905b81548152906001019060200180831161066957829003601f168201915b5050505050815260200190600101906105ee565b50505050815260200160028201805480602002602001604051908101604052809291908181526020016000905b828210156107735783829060005260206000200180546106e690610fc3565b80601f016020809104026020016040519081016040528092919081815260200182805461071290610fc3565b801561075f5780601f106107345761010080835404028352916020019161075f565b820191906000526020600020905b81548152906001019060200180831161074257829003601f168201915b5050505050815260200190600101906106c7565b50505050815250509050919050565b6000808380519060200120905060005b83805490508110156107ee57818482815481106107b2576107b1610ff4565b5b906000526020600020016040516107c991906110c6565b6040518091039020036107e1576001925050506107f5565b8080600101915050610792565b5060009150505b92915050565b828054828255906000526020600020908101928215610843579160200282015b828111156108425782518290816108329190611289565b509160200191906001019061081b565b5b509050610850919061088b565b5090565b6040518060600160405280600073ffffffffffffffffffffffffffffffffffffffff16815260200160608152602001606081525090565b5b808211156108ab57600081816108a291906108af565b5060010161088c565b5090565b5080546108bb90610fc3565b6000825580601f106108cd57506108ec565b601f0160209004906000526020600020908101906108eb91906108ef565b5b50565b5b808211156109085760008160009055506001016108f0565b5090565b6000604051905090565b600080fd5b600080fd5b600080fd5b6000601f19601f8301169050919050565b7f4e487b7100000000000000000000000000000000000000000000000000000000600052604160045260246000fd5b61096e82610925565b810181811067ffffffffffffffff8211171561098d5761098c610936565b5b80604052505050565b60006109a061090c565b90506109ac8282610965565b919050565b600067ffffffffffffffff8211156109cc576109cb610936565b5b602082029050602081019050919050565b600080fd5b600080fd5b600067ffffffffffffffff821115610a0257610a01610936565b5b610a0b82610925565b9050602081019050919050565b82818337600083830152505050565b6000610a3a610a35846109e7565b610996565b905082815260208101848484011115610a5657610a556109e2565b5b610a61848285610a18565b509392505050565b600082601f830112610a7e57610a7d610920565b5b8135610a8e848260208601610a27565b91505092915050565b6000610aaa610aa5846109b1565b610996565b90508083825260208201905060208402830185811115610acd57610acc6109dd565b5b835b81811015610b1457803567ffffffffffffffff811115610af257610af1610920565b5b808601610aff8982610a69565b85526020850194505050602081019050610acf565b5050509392505050565b600082601f830112610b3357610b32610920565b5b8135610b43848260208601610a97565b91505092915050565b60008060408385031215610b6357610b62610916565b5b600083013567ffffffffffffffff811115610b8157610b8061091b565b5b610b8d85828601610b1e565b925050602083013567ffffffffffffffff811115610bae57610bad61091b565b5b610bba85828601610b1e565b9150509250929050565b600073ffffffffffffffffffffffffffffffffffffffff82169050919050565b6000610bef82610bc4565b9050919050565b610bff81610be4565b8114610c0a57600080fd5b50565b600081359050610c1c81610bf6565b92915050565b600060208284031215610c3857610c37610916565b5b6000610c4684828501610c0d565b91505092915050565b600081519050919050565b600082825260208201905092915050565b6000819050602082019050919050565b600081519050919050565b600082825260208201905092915050565b60005b83811015610cb5578082015181840152602081019050610c9a565b60008484015250505050565b6000610ccc82610c7b565b610cd68185610c86565b9350610ce6818560208601610c97565b610cef81610925565b840191505092915050565b6000610d068383610cc1565b905092915050565b6000602082019050919050565b6000610d2682610c4f565b610d308185610c5a565b935083602082028501610d4285610c6b565b8060005b85811015610d7e5784840389528151610d5f8582610cfa565b9450610d6a83610d0e565b925060208a01995050600181019050610d46565b50829750879550505050505092915050565b60006020820190508181036000830152610daa8184610d1b565b905092915050565b60008060408385031215610dc957610dc8610916565b5b6000610dd785828601610c0d565b925050602083013567ffffffffffffffff811115610df857610df761091b565b5b610e0485828601610a69565b9150509250929050565b60008115159050919050565b610e2381610e0e565b82525050565b6000602082019050610e3e6000830184610e1a565b92915050565b610e4d81610be4565b82525050565b600082825260208201905092915050565b6000610e6f82610c4f565b610e798185610e53565b935083602082028501610e8b85610c6b565b8060005b85811015610ec75784840389528151610ea88582610cfa565b9450610eb383610d0e565b925060208a01995050600181019050610e8f565b50829750879550505050505092915050565b6000606083016000830151610ef16000860182610e44565b5060208301518482036020860152610f098282610e64565b91505060408301518482036040860152610f238282610e64565b9150508091505092915050565b60006020820190508181036000830152610f4a8184610ed9565b905092915050565b6000819050919050565b610f6581610f52565b82525050565b6000604082019050610f806000830185610f5c565b610f8d6020830184610f5c565b9392505050565b7f4e487b7100000000000000000000000000000000000000000000000000000000600052602260045260246000fd5b60006002820490506001821680610fdb57607f821691505b602082108103610fee57610fed610f94565b5b50919050565b7f4e487b7100000000000000000000000000000000000000000000000000000000600052603260045260246000fd5b600081905092915050565b60008190508160005260206000209050919050565b6000815461105081610fc3565b61105a8186611023565b94506001821660008114611075576001811461108a576110bd565b60ff19831686528115158202860193506110bd565b6110938561102e565b60005b838110156110b557815481890152600182019150602081019050611096565b838801955050505b50505092915050565b60006110d28284611043565b915081905092915050565b60008190508160005260206000209050919050565b60006020601f8301049050919050565b600082821b905092915050565b60006008830261113f7fffffffffffffffffffffffffffffffffffffffffffffffffffffffffffffffff82611102565b6111498683611102565b95508019841693508086168417925050509392505050565b6000819050919050565b600061118661118161117c84610f52565b611161565b610f52565b9050919050565b6000819050919050565b6111a08361116b565b6111b46111ac8261118d565b84845461110f565b825550505050565b600090565b6111c96111bc565b6111d4818484611197565b505050565b5b818110156111f8576111ed6000826111c1565b6001810190506111da565b5050565b601f82111561123d5761120e816110dd565b611217846110f2565b81016020851015611226578190505b61123a611232856110f2565b8301826111d9565b50505b505050565b600082821c905092915050565b600061126060001984600802611242565b1980831691505092915050565b6000611279838361124f565b9150826002028217905092915050565b61129282610c7b565b67ffffffffffffffff8111156112ab576112aa610936565b5b6112b58254610fc3565b6112c08282856111fc565b600060209050601f8311600181146112f357600084156112e1578287015190505b6112eb858261126d565b865550611353565b601f198416611301866110dd565b60005b8281101561132957848901518255600182019150602085019450602081019050611304565b868310156113465784890151611342601f89168261124f565b8355505b6001600288020188555050505b50505050505056fea26469706673582212200d8be7a0b749b87e24dded562cc0440886f81680ed0402d009ea8fecc996350a64736f6c63430008180033",
  "linkReferences": {},
  "deployedLinkReferences": {}
}