{
  "_format": "hh-sol-artifact-1",
  "contractName": "ConnectionAgreement",
  "sourceName": "contracts/ConnectionAgreement.sol",
  "abi": [
    {
      "inputs": [
        {
          "internalType": "address",
          "name": "initialParticipantA",
          "type": "address"
        },
        {
          "internalType": "address",
          "name": "initialParticipantB",
          "type": "address"
        },
        {
          "internalType": "string",
          "name": "initialConnectionType",
          "type": "string"
        },
        {
          "internalType": "string",
          "name": "initialMessage",
          "type": "string"
        }
      ],
      "stateMutability": "nonpayable",
      "type": "constructor"
    },
    {
      "anonymous": false,
      "inputs": [
        {
          "indexed": true,
          "internalType": "address",
          "name": "participantA",
          "type": "address"
        },
        {
          "indexed": true,
          "internalType": "address",
          "name": "participantB",
          "type": "address"
        },
        {
          "indexed": false,
          "internalType": "string",
          "name": "connectionType",
          "type": "string"
        },
        {
          "indexed": false,
          "internalType": "string",
          "name": "message",
          "type": "string"
        },
        {
          "indexed": false,
          "internalType": "uint256",
          "name": "connectedAt",
          "type": "uint256"
        }
      ],
      "name": "ConnectionActivated",
      "type": "event"
    },
    {
      "inputs": [],
      "name": "connectedAt",
      "outputs": [
        {
          "internalType": "uint256",
          "name": "",
          "type": "uint256"
        }
      ],
      "stateMutability": "view",
      "type": "function"
    },
    {
      "inputs": [],
      "name": "connectionType",
      "outputs": [
        {
          "internalType": "string",
          "name": "",
          "type": "string"
        }
      ],
      "stateMutability": "view",
      "type": "function"
    },
    {
      "inputs": [],
      "name": "message",
      "outputs": [
        {
          "internalType": "string",
          "name": "",
          "type": "string"
        }
      ],
      "stateMutability": "view",
      "type": "function"
    },
    {
      "inputs": [],
      "name": "participantA",
      "outputs": [
        {
          "internalType": "address",
          "name": "",
          "type": "address"
        }
      ],
      "stateMutability": "view",
      "type": "function"
    },
    {
      "inputs": [],
      "name": "participantB",
      "outputs": [
        {
          "internalType": "address",
          "name": "",
          "type": "address"
        }
      ],
      "stateMutability": "view",
      "type": "function"
    }
  ],
  "bytecode": "0x60806040523480156200001157600080fd5b5060405162000ed338038062000ed38339818101604052810190620000379190620004a7565b600073ffffffffffffffffffffffffffffffffffffffff168473ffffffffffffffffffffffffffffffffffffffff1603620000a9576040517f08c379a0000000000000000000000000000000000000000000000000000000008152600401620000a090620005b8565b60405180910390fd5b600073ffffffffffffffffffffffffffffffffffffffff168373ffffffffffffffffffffffffffffffffffffffff16036200011b576040517f08c379a000000000000000000000000000000000000000000000000000000000815260040162000112906200062a565b60405180910390fd5b8273ffffffffffffffffffffffffffffffffffffffff168473ffffffffffffffffffffffffffffffffffffffff16036200018c576040517f08c379a000000000000000000000000000000000000000000000000000000000815260040162000183906200069c565b60405180910390fd5b836000806101000a81548173ffffffffffffffffffffffffffffffffffffffff021916908373ffffffffffffffffffffffffffffffffffffffff16021790555082600160006101000a81548173ffffffffffffffffffffffffffffffffffffffff021916908373ffffffffffffffffffffffffffffffffffffffff16021790555081600290816200021e919062000909565b50806003908162000230919062000909565b50426004819055508273ffffffffffffffffffffffffffffffffffffffff168473ffffffffffffffffffffffffffffffffffffffff167f52a99061bd72f4ea0e4e65171b9cee3a1f6717dc47603551b0929650bed5ff9484846004546040516200029d9392919062000a42565b60405180910390a35050505062000a8d565b6000604051905090565b600080fd5b600080fd5b600073ffffffffffffffffffffffffffffffffffffffff82169050919050565b6000620002f082620002c3565b9050919050565b6200030281620002e3565b81146200030e57600080fd5b50565b6000815190506200032281620002f7565b92915050565b600080fd5b600080fd5b6000601f19601f8301169050919050565b7f4e487b7100000000000000000000000000000000000000000000000000000000600052604160045260246000fd5b6200037d8262000332565b810181811067ffffffffffffffff821117156200039f576200039e62000343565b5b80604052505050565b6000620003b4620002af565b9050620003c2828262000372565b919050565b600067ffffffffffffffff821115620003e557620003e462000343565b5b620003f08262000332565b9050602081019050919050565b60005b838110156200041d57808201518184015260208101905062000400565b60008484015250505050565b6000620004406200043a84620003c7565b620003a8565b9050828152602081018484840111156200045f576200045e6200032d565b5b6200046c848285620003fd565b509392505050565b600082601f8301126200048c576200048b62000328565b5b81516200049e84826020860162000429565b91505092915050565b60008060008060808587031215620004c457620004c3620002b9565b5b6000620004d48782880162000311565b9450506020620004e78782880162000311565b935050604085015167ffffffffffffffff8111156200050b576200050a620002be565b5b620005198782880162000474565b925050606085015167ffffffffffffffff8111156200053d576200053c620002be565b5b6200054b8782880162000474565b91505092959194509250565b600082825260208201905092915050565b7f5061727469636970616e74204120726571756972656400000000000000000000600082015250565b6000620005a060168362000557565b9150620005ad8262000568565b602082019050919050565b60006020820190508181036000830152620005d38162000591565b9050919050565b7f5061727469636970616e74204220726571756972656400000000000000000000600082015250565b60006200061260168362000557565b91506200061f82620005da565b602082019050919050565b60006020820190508181036000830152620006458162000603565b9050919050565b7f44697374696e6374207061727469636970616e74732072657175697265640000600082015250565b600062000684601e8362000557565b915062000691826200064c565b602082019050919050565b60006020820190508181036000830152620006b78162000675565b9050919050565b600081519050919050565b7f4e487b7100000000000000000000000000000000000000000000000000000000600052602260045260246000fd5b600060028204905060018216806200071157607f821691505b602082108103620007275762000726620006c9565b5b50919050565b60008190508160005260206000209050919050565b60006020601f8301049050919050565b600082821b905092915050565b600060088302620007917fffffffffffffffffffffffffffffffffffffffffffffffffffffffffffffffff8262000752565b6200079d868362000752565b95508019841693508086168417925050509392505050565b6000819050919050565b6000819050919050565b6000620007ea620007e4620007de84620007b5565b620007bf565b620007b5565b9050919050565b6000819050919050565b6200080683620007c9565b6200081e6200081582620007f1565b8484546200075f565b825550505050565b600090565b6200083562000826565b62000842818484620007fb565b505050565b5b818110156200086a576200085e6000826200082b565b60018101905062000848565b5050565b601f821115620008b95762000883816200072d565b6200088e8462000742565b810160208510156200089e578190505b620008b6620008ad8562000742565b83018262000847565b50505b505050565b600082821c905092915050565b6000620008de60001984600802620008be565b1980831691505092915050565b6000620008f98383620008cb565b9150826002028217905092915050565b6200091482620006be565b67ffffffffffffffff81111562000930576200092f62000343565b5b6200093c8254620006f8565b620009498282856200086e565b600060209050601f8311600181146200098157600084156200096c578287015190505b620009788582620008eb565b865550620009e8565b601f19841662000991866200072d565b60005b82811015620009bb5784890151825560018201915060208501945060208101905062000994565b86831015620009db5784890151620009d7601f891682620008cb565b8355505b6001600288020188555050505b505050505050565b6000620009fd82620006be565b62000a09818562000557565b935062000a1b818560208601620003fd565b62000a268162000332565b840191505092915050565b62000a3c81620007b5565b82525050565b6000606082019050818103600083015262000a5e8186620009f0565b9050818103602083015262000a748185620009f0565b905062000a85604083018462000a31565b949350505050565b6104368062000a9d6000396000f3fe608060405234801561001057600080fd5b50600436106100575760003560e01c806339bbdd691461005c578063ac21b6f41461007a578063cb08778e14610098578063e21f37ce146100b6578063ff925fe5146100d4575b600080fd5b6100646100f2565b6040516100719190610277565b60405180910390f35b6100826100f8565b60405161008f91906102d3565b60405180910390f35b6100a061011c565b6040516100ad919061037e565b60405180910390f35b6100be6101aa565b6040516100cb919061037e565b60405180910390f35b6100dc610238565b6040516100e991906102d3565b60405180910390f35b60045481565b60008054906101000a900473ffffffffffffffffffffffffffffffffffffffff1681565b60028054610129906103cf565b80601f0160208091040260200160405190810160405280929190818152602001828054610155906103cf565b80156101a25780601f10610177576101008083540402835291602001916101a2565b820191906000526020600020905b81548152906001019060200180831161018557829003601f168201915b505050505081565b600380546101b7906103cf565b80601f01602080910402602001604051908101604052809291908181526020018280546101e3906103cf565b80156102305780601f1061020557610100808354040283529160200191610230565b820191906000526020600020905b81548152906001019060200180831161021357829003601f168201915b505050505081565b600160009054906101000a900473ffffffffffffffffffffffffffffffffffffffff1681565b6000819050919050565b6102718161025e565b82525050565b600060208201905061028c6000830184610268565b92915050565b600073ffffffffffffffffffffffffffffffffffffffff82169050919050565b60006102bd82610292565b9050919050565b6102cd816102b2565b82525050565b60006020820190506102e860008301846102c4565b92915050565b600081519050919050565b600082825260208201905092915050565b60005b8381101561032857808201518184015260208101905061030d565b60008484015250505050565b6000601f19601f8301169050919050565b6000610350826102ee565b61035a81856102f9565b935061036a81856020860161030a565b61037381610334565b840191505092915050565b600060208201905081810360008301526103988184610345565b905092915050565b7f4e487b7100000000000000000000000000000000000000000000000000000000600052602260045260246000fd5b600060028204905060018216806103e757607f821691505b6020821081036103fa576103f96103a0565b5b5091905056fea2646970667358221220a1aa9d592d1b6952ac27125b156e5c43e7d1f00248f17b84c31e4b679b55b5e064736f6c63430008180033",
  "linkReferences": {},
  "deployedLinkReferences": {}
}